:100000000C94B3000C946F0A0C94D4000C94D4009C
:100010000C94D4000C94ED030C94C8030C94D400FD
:100020000C94D4000C94D4000C94D4000C94D40000
:100030000C94D4000C94D4000C94D4000C94D400F0
:100040000C94D4000C94D4000C94D4000C94D400E0
:100050000C94D4000C94D4000C94D4000C94D400D0
:100060000C94D4000C941E0C0C94D4000C94D4006A
:100070000C94D4000C94D4000C94D4000C94D400B0
:100080000C94D4000C94D4000C94D4000C94D400A0
:100090000C94D4000C94D4000C94D4000C94D40090
:1000A0000C94D4000C94D4000C94D4000C94D40080
:1000B0000C94D4000C94D4000C94D4000C94D40070
:1000C0000C94D4000C94D4000C94D4000C94D40060
:1000D0000C94D4000C94D4000C94D4000C94D40050
:1000E0000C94D40007634236B79BD8A71A396856D8
:1000F00018AEBAAB558C1D3CB7CC5763BD6DEDFD4A
:10010000753EF6177231BF000000803F0800000006
:10011000BE922449123EABAAAA2ABECDCCCC4C3EFC
:1001200000000080BEABAAAAAA3E00000000BF00EB
:100130000000803F0000000000084178D3BB4387E7
:10014000D1133D190E3CC3BD4282AD2B3E68EC82FB
:1001500076BED98FE1A93E4C80EFFFBE01C4FF7F80
:100160003F000000000011241FBECFEFD1E2DEBF30
:10017000CDBF00E00CBF12E0A0E0B2E0E4E8F7E29F
:1001800000E00BBF02C007900D92AE30B107D9F767
:1001900013E0AEE0B2E001C01D92AA30B107E1F772
:1001A0000E94A40F0C94C0130C94000080911E02B6
:1001B000813001F590910602E0910E02F0910F025C
:1001C000EE0FFF1FE558FD4F8081E3EEF2E0E90FEF
:1001D000F11D80838091040220911D02E4EFF2E082
:1001E000E80FF11D20839F5F909306028F5F80933D
:1001F000040221C08330F9F490910502E0910E02CF
:10020000F0910F02EE0FFF1FE558FD4F8081E7E3ED
:10021000F2E0E90FF11D80838091030220911D021D
:10022000ECE5F2E0E80FF11D20839F5F909305025B
:100230008F5F8093030210921E0210921D02089598
:100240003B9A4398089586B1886088B9089586B12D
:10025000877F88B908950E9423018FEF9FEFA8E060
:1002600081509040A040E1F700C000000E942701AB
:100270008FEF9FEFA8E081509040A040E1F700C0D1
:1002800000000895AF92BF92CF92DF92EF92FF925B
:100290000F931F93CF93DF93CDB7DEB7E2970FB6DF
:1002A000F894DEBF0FBECDBFC82EB92E262FE42E88
:1002B000FF24862F90E00197E7E0F0E0BF010E9465
:1002C000AD13362FC7010197BF010E94AD13832FD5
:1002D000861B382F18163CF4D82EDD0CDD0CDD0CF7
:1002E000D81AD40E06C0D82EDD0CDD0CDD0CD81AC1
:1002F000D40EED2DE21BAE2E1E160CF0EBC0FF2728
:10030000E7FDF095FF23C4F080E090E050E0DC01D1
:10031000AA0FBB1F81E090E08C0F9D1FA80FB91F93
:10032000852F820F8C9311961C9211975F5F852FFA
:1003300090E0E817F9075CF713160CF064C04D1550
:1003400090F52D2D30E0C9018E199F0967E070E00E
:100350000E94AD13662309F4B2C1A9014750504071
:100360003196EE0FFF1F81E090E08C0F9D1FE80F8C
:10037000F91FC901DC011E97862F815090E09C0176
:10038000220F331F220F331F220F331F281B390B5D
:10039000CD01821B930B4193519347505040481716
:1003A0005907C9F78CC12D2D30E0C701821B930B73
:1003B00067E070E00E94AD13662309F480C1A901D3
:1003C000495F5F4F3196EE0FFF1F81E090E08C0F89
:1003D0009D1FE80FF91FD9011E96862F815090E0CE
:1003E0009C01220F331F220F331F220F331F281BA4
:1003F000390B2A0F3B1F41935193495F5F4F4217BF
:100400005307C9F75CC133230CF056C14D1590F565
:100410002D2D30E0C9018E199F0967E070E00E9420
:10042000AD13662309F44BC1A901475050403196E2
:10043000EE0FFF1F81E090E08C0F9D1FE80FF91F6A
:10044000C901DC011E97862F815090E09C01220F8C
:10045000331F220F331F220F331F281B390BCD01EF
:10046000821B930B419351934750504048175907B3
:10047000C9F725C12D2D30E0C701821B930B67E022
:1004800070E00E94AD13662309F419C1A901495F08
:100490005F4F3196EE0FFF1F81E090E08C0F9D1FA4
:1004A000E80FF91FD9011E96862F815090E09C011C
:1004B000220F331F220F331F220F331F281B390B2C
:1004C0002A0F3B1F41935193495F5F4F42175307D8
:1004D000C9F7F5C0AE2EA1940A2D112707FD10957E
:1004E0001123B4F080E090E050E0FC01EE0FFF1F1C
:1004F00081E090E08C0F9D1FE80FF91F822F851B74
:10050000808311825F5F852F90E0081719076CF7D1
:1005100013160CF068C04D15A0F52D2D30E0C90163
:100520008E199F0967E070E00E94AD13662309F4FD
:10053000C6C0A901475050400F5F1F4FF801EE0F92
:10054000FF1F81E090E08C0F9D1FE80FF91FC9018C
:10055000DC011E97862F815090E09C01220F331FF3
:10056000220F331F220F331F281B390BCD01821B93
:10057000930B419351934750504048175907C9F77F
:100580009EC02D2D30E0C701821B930B67E070E009
:100590000E94AD13662309F492C0A901495F5F4F21
:1005A0000F5F1F4FF801EE0FFF1F81E090E08C0FEF
:1005B0009D1FE80FF91FD9011E96862F815090E0EC
:1005C0009C01220F331F220F331F220F331F281BC2
:1005D000390B2A0F3B1F41935193495F5F4F4217DD
:1005E0005307C9F76CC033230CF068C04D1598F55C
:1005F0002D2D30E0C9018E199F0967E070E00E943F
:10060000AD13662309F45BC0A90147505040C801EF
:100610000196880F991FE1E0F0E0EC0FFD1FE80F55
:10062000F91FC901DC011E97862F815090E09C01C3
:10063000220F331F220F331F220F331F281B390BAA
:10064000CD01821B930B4193519347505040481763
:100650005907C9F734C02D2D30E0C701821B930B19
:1006600067E070E00E94AD13662349F1A901495F7C
:100670005F4FC8010196880F991FE1E0F0E0EC0F91
:10068000FD1FE80FF91FC901DC011E96862F81505E
:1006900090E09C01220F331F220F331F220F331FC4
:1006A000281B390B2A0F3B1F41935193495F5F4F22
:1006B00042175307C9F703C060E001C060E08A2D0C
:1006C000992787FD9095860F911D9093280280931E
:1006D00027026F5F6A0D6F3078F4E62FF0E0EE0FBF
:1006E000FF1F81E090E08C0F9D1FE80FF91F118222
:1006F00010826F5F6F3089F7EC2DFB2DDE011196B4
:1007000082E30D9001928150E1F78C2D9B2DE296B2
:100710000FB6F894DEBF0FBECDBFDF91CF911F9112
:100720000F91FF90EF90DF90CF90BF90AF90089522
:1007300081B18F6081B982B1807F82B9EAE0F1E056
:10074000808188618083EBE0F1E080818861808333
:1007500008956C98749A08956D98759A08950E94FA
:1007600098030E94A9030E94AC030895F894EAE656
:10077000F0E0808182608083EC9A78940895F89408
:10078000EAE6F0E0808188608083ED9A78940895AD
:100790001F920F920FB60F9211248F939F93AF93D6
:1007A000BF9380911F0290912002A0912102B091ED
:1007B00022020196A11DB11D80931F029093200279
:1007C000A0932102B0932202BF91AF919F918F918C
:1007D0000F900FBE0F901F9018951F920F920FB69B
:1007E0000F9211248F939F93AF93BF938091230215
:1007F00090912402A0912502B09126020196A11D9C
:10080000B11D8093230290932402A0932502B093FC
:100810002602BF91AF919F918F910F900FBE0F90C5
:100820001F90189592B1907F8F70982B92B9089570
:1008300086E00E941204089589E00E94120408953F
:1008400085E00E94120408958AE00E94120408952F
:1008500084E00E941204089582E00E941204089528
:1008600081E00E941204089588E00E941204089515
:1008700080E00E94120408950F931F93CF93BC0150
:1008800080E090E00E94431128E431EE42E850E419
:100890000E94AA100E941711DC01CB01A0E0B0E079
:1008A00010921F0210922002109221021092220236
:1008B0001092230210922402109225021092260216
:1008C000F1E0C0E040911F025091200260912102AE
:1008D000709122020091230210912402209125029E
:1008E00030912602EF2F481759076A077B0708F453
:1008F000EC2FEE2349F44F2F081719072A073B075F
:1009000008F44C2F4423F1F20E943804CF911F9138
:100910000F910895BC0180E090E00E94431125EE04
:1009200030ED4AEA50E40E94AA100E941711462FA7
:10093000572F682F792F10921F02109220021092C9
:1009400021021092220280911F0290912002A09118
:100950002102B0912202481759076A077B0798F7CE
:100960000E9438040895CF93DF93EC010E9418048D
:10097000CE010E948A04DF91CF910895CF93DF9337
:10098000EC010E941C04CE010E948A04DF91CF91E9
:100990000895CF93DF93EC010E942004CE010E94C2
:1009A0003C04DF91CF910895CF93DF93EC010E9437
:1009B0002404CE010E943C04DF91CF910895CF938F
:1009C000DF93EC010E942804CE01880F991F0E943A
:1009D0003C04DF91CF910895CF93DF93EC010E9407
:1009E0002C04CE01880F991F0E943C04DF91CF9107
:1009F0000895CF93DF93EC010E943004CE01880F5D
:100A0000991F0E943C04DF91CF910895CF93DF930B
:100A1000EC010E943404CE01880F991F0E943C040F
:100A2000DF91CF910895F8940E94AF030E94B6031E
:100A30000E94BF0378940895259A2D9A0895269AC6
:100A40002E9A0895279A2F9A08950E941C050E94B5
:100A50001F050E9422050895E1E8F0E010828FEF63
:100A600093E090938700809386002CEF209385007D
:100A700021E02093840090938900809388009093D4
:100A80008B0080938A0090938D0080938C008BEA7A
:100A9000809380008CE080830895F8940E9425055F
:100AA0000E942C0578940895682F70E080E090E013
:100AB0000E9443112FE632E143E05FE30E94D1112F
:100AC00021E73DE34AE052E40E9446100E941711DC
:100AD00070E070938900609388000895682F70E03B
:100AE00080E090E00E9443112FE632E143E05FE3B3
:100AF0000E94D11121E73DE34AE052E40E944610F2
:100B00000E94171170E070938B0060938A00089523
:100B1000682F70E080E090E00E9443112FE632E100
:100B200043E05FE30E94D11121E73DE34AE052E454
:100B30000E9446100E94171170E070938D00609320
:100B40008C0008958FEF93E0909389008093880044
:100B500008958FEF93E090938B0080938A0008951F
:100B60008FEF93E090938D0080938C00089510BADE
:100B700011BA109207011092080108950E94B7055A
:100B80000895EAE7F0E0108210927B0080E2809303
:100B90007C0080E880BF86E880830895883018F064
:100BA00098E090937B008770806280937C00EAE7F6
:100BB000F0E0808180648083808184FFFDCF80911C
:100BC0007900EAE7F0E090819061908310927B00D9
:100BD0000895842F0E94CE058093E00208950F931C
:100BE0001F93682F70E080E090E00E9443112FEE89
:100BF00039EC43E95FE30E943412B62FA72F382F58
:100C0000292F60E070E080E89FE3422F0B2F1A2F1E
:100C1000232F342FA90198010E94AA102AE939EF45
:100C20004EE255E40E94D11120E030E040E251E470
:100C30000E94D1110E941211882777FD8095982F6C
:100C40000E9445110E941211862F972F23E08132B6
:100C5000920710F080E293E01F910F910895F894AD
:100C60000E94BE050E94C1057894089586E69EE024
:100C70000197F1F700004098419880E388B9429AC3
:100C8000EFEFF7E43197F1F700C000004298E6E695
:100C9000FEE03197F1F700004098419888B9429AF8
:100CA000EFEFF7E43197F1F700C000004298E6E675
:100CB000FEE03197F1F700004098419888B9429AD8
:100CC0008FEF97E40197F1F700C000004298E6E645
:100CD000FEE03197F1F700004098419880E288B932
:100CE000429A8FEF97E40197F1F700C00000429815
:100CF000089598B19F7098B998B1282F207F922BB2
:100D000098B940984198429AEFEFF7E43197F1F79C
:100D100000C00000429898B19F7098B998B1829530
:100D2000807F892B88B940984198429A8FEF97E449
:100D30000197F1F700C000004298089586E69EE012
:100D40000197F1F7000088E20E94790681E00E9495
:100D5000790686E00E9479068EE00E94790680E896
:100D60000E947906089598B19F7098B998B1282F7C
:100D7000207F922B98B9409A4198429AEFEFF7E47E
:100D80003197F1F700C00000429898B19F7098B970
:100D900098B18295807F892B88B9409A4198429A70
:100DA0008FEF97E40197F1F700C000004298089593
:100DB00080E80E9479060895CF93DF93EC01888143
:100DC000882331F021960E94B30689918823D9F7B0
:100DD000DF91CF910895823079F0833018F481301B
:100DE000C9F405C0833069F08430A1F40FC0862FA8
:100DF00081580E9479060895862F81540E947906B1
:100E00000895862F8D560E9479060895862F8D525B
:100E10000E94790608950F931F93CF93DF938A0161
:100E2000E901882311F0662319F40E94D80602C054
:100E30000E94EB06C530D10571F4C80160E177E28C
:100E40000E949913CB01C09690934A028093490265
:100E50000E94B30603C0C430D105B9F4C80168EEDE
:100E600073E00E949913CB0170937102609370023A
:100E70006AE070E00E949913C0969093F302809309
:100E8000F2020E94B30681E001C080E0C330D105C8
:100E900011F08130B1F4C80164E670E00E9499134A
:100EA000CB0170937102609370026AE070E00E945F
:100EB0009913C0969093E2028093E1020E94B306D8
:100EC00081E0C230D10511F08130B1F42AE030E088
:100ED000C801B9010E949913CB017093710260930C
:100EE0007002B9010E949913C0969093B502809345
:100EF000B4020E94B30681E0C130D10511F0813007
:100F000061F4C8016AE070E00E949913C096909362
:100F1000F1028093F0020E94B306C630D1051CF0A6
:100F200085E40E94B306DF91CF911F910F91089540
:100F300087B1876F87B988B1807888B9089510BA6A
:100F400011BA1092070110920801089581B18F60C3
:100F500081B982B1807F82B9EAE0F1E08081886165
:100F60008083EBE0F1E080818861808308950E94B6
:100F700098070E949F070E94A6070E9420010895DB
:100F8000E1E2F1E010828FEF8093250191E09093F0
:100F90002401109229018093280110922B01809343
:100FA0002A0110922D0180932C0189EA809320015F
:100FB0008BE080830895EAE7F0E0108210927B00D6
:100FC00080E280937C0080E880BF86E8808308957B
:100FD000883018F098E090937B008770806280934F
:100FE0007C00EAE7F0E0808180648083808184FF78
:100FF000FDCF80917900EAE7F0E0908190619083E5
:1010000010927B000895CF93DF93D82FC62F842FA3
:101010000E94E807482F8093AD028D2F6C2F50E07F
:1010200023E030E00E940B07DF91CF910895809379
:10103000280160932A01089592B1907F8F70982BB8
:1010400092B9089589E00E941C08089586E00E94E4
:101050001C080895CF93DF93EC0182309105B1F025
:101060008330910519F18130910579F50E942608A8
:101070008DE76DE70E9417088FEF9FE7A4E081508E
:101080009040A040E1F700C000001FC00E94260869
:1010900082E86EE10E9417088FEF9FE3AFE2815074
:1010A0009040A040E1F700C000000FC00E94260859
:1010B0008EE162E80E9417088FEF9FE3AFE2815054
:1010C0009040A040E1F700C0000083E00E94E807E4
:1010D00080931B0282E00E94E80780931A0281E05D
:1010E0000E94E8078093190281E061E043E00E94DA
:1010F000030881E065E042E00E94030881E069E0C6
:1011000041E00E94030880911A02883208F042C030
:1011100090911B02983208F051C0809119028832D8
:10112000E8F5C230D105B1F0C330D10519F1C130B5
:10113000D10559F60E9426088DE76DE70E94170831
:101140008FEF9FE7A4E081509040A040E1F700C0FE
:101150000000BBCF0E94260882E86EE10E941708BB
:101160008FEF9FE7A4E081509040A040E1F700C0DE
:101170000000ABCF0E9426088EE162E80E941708AB
:101180008FEF9FE7A4E081509040A040E1F700C0BE
:1011900000009BCF90911B02983280F40E94260899
:1011A00082E86EE10E9417088FEF9FE7ADE0815063
:1011B0009040A040E1F700C0000026C090911902C5
:1011C000983280F40E9426088EE162E80E94170897
:1011D0008FEF9FE7ADE081509040A040E1F700C065
:1011E000000012C0893208F470CF0E94260887E8F8
:1011F00067E80E9417088FEF9FE7ADE081509040AD
:10120000A040E1F700C00000DF91CF91089580E099
:101210000E941C080895F8940E94B7070E94DB07FB
:101220000E94C00778940895CF930E94200183E024
:101230000E94E80780931B0282E00E94E8078093E7
:101240001A0281E00E94E8078093190210921C02A2
:1012500081E061E043E00E94030881E065E042E054
:101260000E94030881E069E041E00E940308809148
:101270001A02893248F081E080931C020E942608FD
:101280008EE66EE60E94170880911B02883268F491
:1012900080911C02882349F481E080931C020E9403
:1012A000260882E860E00E941708809119028832BF
:1012B00068F480911C02882349F481E080931C0229
:1012C0000E94260880E062E80E94170880911A02B6
:1012D000893208F4DFC080911B02893208F4DAC039
:1012E00080911902893208F4D5C00E9438048FEF2A
:1012F0009FE7A6E181509040A040E1F700C00000C8
:10130000E0911702F0911802EE0FFF1FE558FD4F14
:101310004081518182E061E023E030E00E940B07D0
:101320008091170290911802019690931802809371
:10133000170280910702909108028230910509F00E
:10134000A7C0CFE50E942F068BE00E94E80780939C
:10135000EF020E94EF0590930903809308038FEF3B
:101360009FE7A4E081509040A040E1F700C000005A
:101370000E944D058C2F0E945405AFEFBFE81197D6
:10138000F1F700C0000080910803909109030197D4
:101390008935910530F50E94A2058FEF9FEFACE2F1
:1013A00081509040A040E1F700C0000081E08093B0
:1013B0001D020E945F0B8FEF9FEFACE281509040C7
:1013C000A040E1F700C000000E94D6008FEF9FE729
:1013D000A6E181509040A040E1F700C00000CAE5BE
:1013E00005C0CD5FC63B09F0ADCFF9CF0E942F06F7
:1013F0008BE00E94E8078093EF020E94EF05909334
:101400000903809308038FEF9FE7A4E08150904089
:10141000A040E1F700C000000E944D058C2F0E9403
:101420005405AFEFBFE81197F1F700C000008091BD
:1014300008039091090301978935910528F50E94C9
:10144000A2058FEF9FEFACE281509040A040E1F702
:1014500000C0000082E080931D020E945F0B8FEFAE
:101460009FEFACE281509040A040E1F700C0000047
:101470000E94D6008FEF9FE7A6E181509040A040E8
:10148000E1F700C0000004C0C150C93009F0AECF80
:101490000E94C90C80911A02883270F480911B025C
:1014A000883250F480911902883230F40E94220868
:1014B00084E664E60E941708CF9108958AB18E6F82
:1014C0008AB9589A08950E945E0A0895F894E9E648
:1014D000F0E0808182608083E89A789408951F927A
:1014E0000F920FB60F9211248F939F93AF93BF93D8
:1014F0008091130290911402A0911502B0911602EE
:101500000196A11DB11D8093130290931402A09324
:101510001502B0931602BF91AF919F918F910F90DA
:101520000FBE0F901F901895F8940E94630A0E94B6
:10153000660A789408955E985F9808955E9A5F9A17
:1015400008955E985F9A08955E9A5F9808955C9AF0
:101550005D9808950E949B0A109213021092140243
:1015600010921502109216028FEF9FE7A4E08150AF
:101570009040A040E1F700C00000809113029091DC
:101580001402A0911502B0911602809377029093F5
:101590007802A0937902B0937A0208950E949E0A7D
:1015A0001092130210921402109215021092160259
:1015B0008FEF9FE7A4E081509040A040E1F700C08A
:1015C00000008091130290911402A0911502B09135
:1015D00016028093730290937402A0937502B093E5
:1015E000760208950E94A10A10921302109214022A
:1015F00010921502109216028FEF9FE7A4E081501F
:101600009040A040E1F700C000008091130290914B
:101610001402A0911502B091160280934302909398
:101620004402A0934502B093460208958F929F9280
:10163000AF92BF92EF92FF920F931F934B015C0109
:10164000DA01C901B801A70188159905AA05BB05EA
:1016500088F4E814F9040A051B0560F4E2E0F1E0FF
:1016600080818061808380818F79808381E0809315
:101670001E021CC0481759076A077B0760F4E2E0A6
:10168000F1E080818062808380818F7A808382E034
:1016900080931E020BC0E2E0F1E0808180648083D1
:1016A00080818F7C808383E080931E021F910F9145
:1016B000FF90EF90BF90AF909F908F900895EF9222
:1016C000FF920F931F93CF93DF930E94940A80E7BA
:1016D00080930101109202010E94A70AC5E0D0E0A8
:1016E0000E94AA0A0E94CE0A0E94F20A6091770222
:1016F000709178028091790290917A022091730220
:10170000309174024091750250917602E09043024C
:10171000F090440200914502109146020E94160B7F
:101720008FEF9FEFA8E081509040A040E1F700C00C
:1017300000002197A9F6E2E0F1E080818F788083B4
:10174000DF91CF911F910F91FF90EF9008953B9AF9
:101750004398089581B18F6081B982B1807F82B949
:10176000EAE0F1E0808188618083EBE0F1E0808154
:101770008861808308950E94AA0B0E94A70B089598
:10178000E1ECF0E010821092C00086E08093C2008D
:101790008FE58093C4001092C50088E98083089586
:1017A0008B31E9F18C3190F48D30A9F18E3038F421
:1017B000863079F18B3009F18430F1F53CC0843109
:1017C00061F18931F1F08231B9F519C0893259F1ED
:1017D0008A3238F4823229F18732B9F0803261F5E9
:1017E00012C0803311F1813318F48E3229F50FC005
:1017F0008436E9F0853601F51CC09BE01DC092E1FE
:101800001BC099E119C090E217C097E215C09EE293
:1018100013C096E011C09DE00FC094E10DC09BE1A4
:101820000BC092E209C099E207C09DE205C094E6B0
:1018300003C095E601C094E0892F08951F920F928E
:101840000FB60F920BB60F9211240F931F932F9385
:101850003F934F935F936F937F938F939F93AF9338
:10186000BF93CF93EF93FF930E9436060E949E068C
:10187000C091C600C73321F481E0809300020BC001
:10188000C83349F410920002809110028F5F809358
:1018900010020E942B0180910002813009F059C092
:1018A0008C2F8150803348F50091120210E08C2F6C
:1018B0000E94D00BC82FF801E55DFD4F808381E0C9
:1018C00061E00E94EB0682E06CE04C2F50E025E0E6
:1018D00030E00E940B078FEF9FEFACE28150904009
:1018E000A040E1F700C0000081E00E9479068091ED
:1018F00012028F5F809312022CC08C2F845682308C
:1019000040F50091110210E08C2F0E94D00BC82FDF
:10191000F801E45BFD4F808381E061E00E94EB060B
:1019200082E06CE04C2F50E025E030E00E940B0795
:101930008FEF9FEFACE281509040A040E1F700C0F4
:10194000000081E00E947906809111028F5F8093F0
:101950001102FF91EF91CF91BF91AF919F918F9124
:101960007F916F915F914F913F912F911F910F91B7
:101970000F900BBE0F900FBE0F901F901895F8940C
:101980000E94BB0B0E94C00B789408958093C60000
:1019900008950F931F93CF93DF930E94200120910E
:1019A0000E0230910F028091270290912802281791
:1019B000390709F031C18091070290910802813006
:1019C000910509F05AC08091090290910A02813074
:1019D000910581F484EB90E00E94D4040E943804C5
:1019E0008FEF9FE7A6E181509040A040E1F700C053
:1019F000000025C08230910581F48AE590E00E94C4
:101A0000D4040E9438048FEF9FE7A6E181509040F4
:101A1000A040E1F700C0000012C08430910579F4C5
:101A20008AE590E00E94C9040E9438048FEF9FE786
:101A3000A6E181509040A040E1F700C0000083E0A3
:101A400090E090930A028093090282E064E043E010
:101A500050E023E030E00E940B078FEF9FEFACE2F5
:101A600081509040A040E1F700C0000081E090E08C
:101A700090932A0280932902CFC08230910509F009
:101A8000CBC00E942B010E94BF0C8FEF9FE7A4E008
:101A900081509040A040E1F700C0000093E3909394
:101AA000E302E0910602F0E0ED51FD4F84E3808314
:101AB0009093F402E0910402F0E0EC50FD4F80833B
:101AC0008091E302882309F0B8C106C0F801EC0F49
:101AD000FD1F8081882331F48091F402882309F06E
:101AE00098C131C0F801EC0FFD1F80810E94C60C27
:101AF0008FEF9FEFACE281509040A040E1F700C033
:101B000000000E942B012196CB30D105F9F6E4CFDD
:101B1000F801EC0FFD1F80818823A9F0F801EC0F7C
:101B2000FD1F80810E94C60C8FEF9FEFACE28150B9
:101B30009040A040E1F700C000000E942B012196D8
:101B4000CA30D10529F795E390933702E091050259
:101B5000F0E0E95CFD4F86E3808390935C02E091C6
:101B60000302F0E0E45AFD4F80838091370288231E
:101B700009F03BC106C0F801EC0FFD1F80818823EE
:101B800031F480915C02882309F01BC131C0F80157
:101B9000EC0FFD1F80810E94C60C8FEF9FEFACE21F
:101BA00081509040A040E1F700C000000E942B014E
:101BB0002196CB30D105F9F6E4CFF801EC0FFD1FEB
:101BC00080818823A9F0F801EC0FFD1F80810E941D
:101BD000C60C8FEF9FEFACE281509040A040E1F740
:101BE00000C000000E942B012196CA30D10529F7C0
:101BF000809110028330E0F30E942B010E942B01A0
:101C000083E090E0909308028093070281E090E0E7
:101C100090932A0280932902E0910E02F0910F0224
:101C20008091270290912802E817F9070CF019C15A
:101C3000AF014F5F5F4F8BE792E0EE0FFF1FE80FA2
:101C4000F91F9A01220F331F820F931FC081D18188
:101C5000DC018D919C91C81BD90B50930F024093CE
:101C60000E0282E069E0AE0123E030E00E940B0743
:101C7000BFEFCF3FDB07A9F1EFEFCF3FDE0709F062
:101C800034F4FFEFC93FDF0709F090C06EC0C130E8
:101C9000D10529F0C730D10509F088C044C0809132
:101CA000090290910A028130910529F483E090E0C5
:101CB0000E942A080FC08330910529F482E090E049
:101CC0000E942A0807C08430910521F481E090E049
:101CD0000E942A0884E090E090930A02809309020F
:101CE00065C08091090290910A028130910529F422
:101CF00082E090E00E942A080FC08230910529F40A
:101D000081E090E00E942A0807C08330910521F409
:101D100083E090E00E942A0882E090E090930A021B
:101D20008093090243C08091090290910A02813098
:101D3000910529F481E090E00E942A080FC08230CA
:101D4000910529F483E090E00E942A0807C08430BE
:101D5000910521F482E090E00E942A0881E090E061
:101D600090930A028093090221C080910902909108
:101D70000A028230910529F482E090E00E942A084C
:101D80000FC08330910529F481E090E00E942A0879
:101D900007C08430910521F483E090E00E942A0876
:101DA00083E090E090930A02809309024091090237
:101DB00050910A0282E064E023E030E00E940B07C9
:101DC00050C080915C020E94C60C8FEF9FEFACE286
:101DD00081509040A040E1F700C000000E942B011C
:101DE000C1E0D0E00CE512E0E8CE809137020E941D
:101DF000C60C8FEF9FEFACE281509040A040E1F71E
:101E000000C000000E942B01C1E0D0E007E312E017
:101E1000B2CE8091F4020E94C60C8FEF9FEFACE22D
:101E200081509040A040E1F700C000000E942B01CB
:101E3000C1E0D0E004EF12E06BCE8091E3020E949B
:101E4000C60C8FEF9FEFACE281509040A040E1F7CD
:101E500000C000000E942B01C1E0D0E003EE12E0C0
:101E600035CEDF91CF911F910F91089580E090E0E2
:101E700023EE32E047E352E0F901E80FF91F108248
:101E8000FA01E80FF91F108201968B309105A1F736
:101E900080E090E024EF32E04CE552E0F901E80FF9
:101EA000F91F1082FA01E80FF91F1082019685319F
:101EB0009105A1F70895CF93DF93CDB7DEB7E297F1
:101EC0000FB6F894DEBF0FBECDBFCE010196609174
:101ED0000C0240910B020E944201ABE7B2E0FE010E
:101EE000319682E301900D928150E1F70E940B0937
:101EF0000E9436060E949E060E94140980912902C3
:101F000090912A0281309105B9F710922A0210921D
:101F10002902109218021092170210920F021092CA
:101F20000E020E94220884E664E60E94170880914F
:101F30000B0280930C02E2960FB6F894DEBF0FBE40
:101F4000CDBFDF91CF9108950E9413050E94BF0C71
:101F50000E942B018FEF9FEFACE281509040A04098
:101F6000E1F700C0000088E280930C0282E08093D9
:101F70000B0288E262E00E945B0F0E9423018FEF58
:101F80009FEFACE281509040A040E1F700C000001C
:101F90000E94270182E090E090930802809307025C
:101FA0008CE280930B020E94360F80910C026091AC
:101FB0000B020E945B0F0E9423018FEF9FEFACE2A8
:101FC00081509040A040E1F700C000000E9427012E
:101FD00083E090E0909308028093070284E080936E
:101FE0000B0280910C0264E00E945B0F0E942301AF
:101FF0008FEF9FEFACE281509040A040E1F700C02E
:1020000000000E94270189E280930B0280910C025C
:1020100069E20E945B0F0E9423018FEF9FEFACE209
:1020200081509040A040E1F700C000000E942701CD
:102030008AE280930B0280910C026AE20E945B0F9D
:102040000E9423018FEF9FEFACE281509040A040AF
:10205000E1F700C000000E9427018EE280930B028E
:1020600080910C026EE20E945B0F0E9423018FEFB1
:102070009FEFACE281509040A040E1F700C000002B
:102080000E94270180E090E008955058BB27AA27BE
:102090000ED04DC13ED130F043D120F031F49F3FFE
:1020A00011F41EF433C10EF4E095E7FB29C1E92FCA
:1020B0004FD180F3BA17620773078407950718F0AA
:1020C00071F49EF567C10EF4E0950B2EBA2FA02D8A
:1020D0000B01B90190010C01CA01A0011124FF27D5
:1020E000591B99F0593F50F4503E68F11A16F040D0
:1020F000A22F232F342F4427585FF3CF46953795CF
:102100002795A795F0405395C9F77EF41F16BA0B93
:10211000620B730B840BBAF09150A1F0FF0FBB1F41
:10212000661F771F881FC2F70EC0BA0F621F731F8A
:10213000841F48F4879577956795B795F7959E3FE7
:1021400008F0B3CF9395880F08F09927EE0F979575
:10215000879508950CD0EBC0E3D040F0DAD030F092
:1021600021F45F3F19F0CCC0511115C1CFC0F0D0A0
:1021700098F39923C9F35523B1F3951B550BBB274E
:10218000AA2762177307840738F09F5F5F4F220FFB
:10219000331F441FAA1FA9F333D00E2E3AF0E0E8F4
:1021A00030D091505040E695001CCAF729D0FE2F40
:1021B00027D0660F771F881FBB1F261737074807D2
:1021C000AB07B0E809F0BB0B802DBF01FF27935888
:1021D0005F4F2AF09E3F510568F092C0DCC05F3F20
:1021E000ECF3983EDCF3869577956795B795F79570
:1021F0009F5FC9F7880F911D9695879597F9089568
:10220000E1E0660F771F881FBB1F62177307840703
:10221000BA0720F0621B730B840BBA0BEE1F88F712
:10222000E095089504D06894B111B5C0089598D090
:1022300088F09F5790F0B92F9927B751A0F0D1F0AF
:10224000660F771F881F991F1AF0BA95C9F712C039
:10225000B13081F09FD0B1E008959CC0672F782FF6
:102260008827B85F39F0B93FCCF3869577956795A5
:10227000B395D9F73EF490958095709561957F4F11
:102280008F4F9F4F0895E89409C097FB3EF49095B7
:102290008095709561957F4F8F4F9F4F9923A9F03F
:1022A000F92F96E9BB279395F695879577956795CE
:1022B000B795F111F8CFFAF4BB0F11F460FF1BC012
:1022C0006F5F7F4F8F4F9F4F16C0882311F096E9A5
:1022D00011C0772321F09EE8872F762F05C0662353
:1022E00071F096E8862F70E060E02AF09A95660F0C
:1022F000771F881FDAF7880F9695879597F90895C5
:1023000097F99F6780E870E060E008959FEF80ECA8
:10231000089500240A94161617061806090608954B
:1023200000240A9412161306140605060895092EB1
:102330000394000C11F4882352F0BB0F40F4BF2B20
:1023400011F460FF04C06F5F7F4F8F4F9F4F089560
:1023500057FD9058440F551F59F05F3F71F0479556
:10236000880F97FB991F61F09F3F79F0879508953B
:10237000121613061406551FF2CF4695F1DF08C05A
:10238000161617061806991FF1CF86957105610577
:1023900008940895E894BB2766277727CB0197F91F
:1023A00008950BD0C4CFB5DF28F0BADF18F095231D
:1023B00009F0A6CFABCF1124EECFCADFA0F3959FD3
:1023C000D1F3950F50E0551F629FF001729FBB271C
:1023D000F00DB11D639FAA27F00DB11DAA1F649FC8
:1023E0006627B00DA11D661F829F2227B00DA11D7B
:1023F000621F739FB00DA11D621F839FA00D611D01
:10240000221F749F3327A00D611D231F849F600D21
:10241000211D822F762F6A2F11249F5750408AF05A
:10242000E1F088234AF0EE0FFF1FBB1F661F771FE6
:10243000881F91505040A9F79E3F510570F060CF22
:10244000AACF5F3FECF3983EDCF3869577956795CE
:10245000B795F795E7959F5FC1F7FE2B880F911D04
:102460009695879597F90895FA01EE0FFF1F30961C
:102470002105310599F16115710561F48038BFE3DB
:102480009B0749F168949038810561F08038BFEF6F
:102490009B0741F0992342F5FF3FE10531052105F6
:1024A00011F1E8940894E795D901AA2329F4AB2FF8
:1024B000BE2FF85FD0F310C0FF5F70F4A695E0F771
:1024C000F73950F019F0FF3A38F49F779F930CD00A
:1024D0000F9007FC905808953EF018CF60E070E030
:1024E00080E89FE308954FE79F775F934F933F9373
:1024F0002F939ED02F913F914F915F9152DF05C056
:1025000019F40EF0FDCE46CF01CF2ADFC8F396387E
:10251000C0F707F80F92E8942BE33AEA48EB5FE73D
:102520004EDF0F920F920F924DB75EB70F92C0D051
:10253000E4EEF0E016D04F915F91EF91FF91E595B9
:10254000EE1FFF1F49F0FE57E0684427EE0F441FBF
:10255000FA95E1F74195550B32D00F9007FE26C052
:102560000895DF93CF931F930F93FF92EF92DF9223
:102570007B018C01689405C0DA2EEF011EDFFE019D
:10258000E894A5912591359145915591AEF3EF01D0
:102590008EDDFE019701A801DA9479F7DF90EF90C4
:1025A000FF900F911F91CF91DF9108959B01AC0196
:1025B00060E070E080E89FE3CDCDA2CEACC0D0DE7D
:1025C000E8F39923D9F3940F511DBBF39150504078
:1025D00094F059F0882332F0660F771F881F9150CE
:1025E0005040C1F79E3F510544F7880F911D9695C5
:1025F000879597F908955F3FACF0983E9CF0BB2714
:10260000869577956795B79508F4B1609395C1F76E
:10261000BB0F58F711F460FFE8CF6F5F7F4F8F4F0C
:102620009F4FE3CFB8CE0EF076C070CE689468CEE0
:1026300097DEC8F39923D1F3C6F3DF93CF931F93AB
:102640000F93FF92C92FDD2788232AF02197660F69
:10265000771F881FDAF720E030E040E85FEB9FE368
:10266000883920F0803E30F021968F770FDDECE046
:10267000F1E003C00BDDE9E3F1E073DF8B01BE01A4
:10268000EC01FB2E6F5771097595771F880B990B1D
:10269000FCDD28E132E741E35FE38FDEAF2D9801F7
:1026A000AE01FF900F911F91CF91DF9100DD3FCEE2
:1026B000FA01DC01AA0FBB1F9B01AC01BF5728F434
:1026C00022273327442750781FC0B75188F4AB2FF7
:1026D0000024469537952795011CA395D2F3002039
:1026E00069F0220F331F441FB395DAF30DD0CDCC20
:1026F00061307105A0E88A07B94630F49B01AC014E
:102700006627772788279078309621F020833183B9
:102710004283538308959F3F31F0915020F4879571
:1027200077956795B795880F911D9695879597F939
:102730000895AA1BBB1B51E107C0AA1FBB1FA61708
:10274000B70710F0A61BB70B881F991F5A95A9F75A
:1027500080959095BC01CD01089597FB092E072621
:102760000AD077FD04D0E5DF06D000201AF470957A
:1027700061957F4F0895F6F7909581959F4F089545
:04278000F894FFCFFB
:0E278400020A000101010101000100272500E9
:040000050080020C69
:00000001FF
