:100000000C942A000C94D1020C94F6020C94470034
:100010000C9447000C94BC070C9447000C944700C8
:100020000C9447000C9447000C9447000C9464090E
:100030000C9447000C9447000C9447000C94470024
:100040000C9447000C9447000C9447000C94470014
:100050000C94470011241FBECFE5D4E0DEBFCDBF16
:1000600010E0A0E6B0E0E2E1FFE102C005900D92F1
:10007000AA36B107D9F711E0AAE6B0E001C01D9297
:10008000A331B107E1F70E94CE0C0C94870F0C94BA
:10009000000080917500813009F587E990E0C59AEC
:1000A000E9E9F3E03197F1F700C0C598E6E6FCE82E
:1000B0003197F1F70000019791F787E990E0C59A31
:1000C000EEE1F6E03197F1F700C0C598E1EEF9E80E
:1000D0003197F1F70000019791F71FC08230E9F4E2
:1000E0009091620080917600E8ECF0E0E80FF11D5D
:1000F0008081E2E8F0E0E90FF11D808380916100EA
:1001000020917400E0EAF0E0E80FF11D20839F5F8A
:10011000909362008F5F80936100809175008330BF
:1001200009F59091730080917600E8ECF0E0E80F1B
:10013000F11D8081EEE8F0E0E90FF11D80839091E0
:10014000720080917400ECEAF0E0E90FF11D808309
:10015000809164008F5F80936400809163008F5F63
:1001600080936300109275001092740085B38F78AD
:1001700085BB0895A39AAB9808950E94BA0008958C
:1001800083B3886085BB089583B3877F85BB08955B
:100190000E94C0008FEF9FE7A4E081509040A040F4
:1001A000E1F700C000000E94C4008FEF9FE7A4E0C9
:1001B00081509040A040E1F700C000000895F894FD
:1001C0000E94BD0078940895CF92DF92EF92FF9243
:1001D0000F931F93CF93DF93CDB7DEB72F970FB653
:1001E000F894DEBF0FBECDBF082FF92E262FC42EE8
:1001F000DD24862F90E00197E7E0F0E0BF010E9448
:10020000600F362FC6010197BF010E94600F361B99
:10021000532F13163CF4132F110F110F110F131B33
:10022000140F06C0132F110F110F110F131B140FF2
:10023000312F321BE32E13160CF0ADC0E32FFF2736
:10024000E7FDF095FF239CF080E090E060E0A1E006
:10025000B0E0AC0FBD1F8A0F9B1F762F720FDC0121
:100260007C936F5F862F90E0E817F90784F71516E7
:100270000CF047C0411718F5812F90E08C199D09AB
:1002800067E070E00E94600F662309F434C11750E4
:10029000EC0FFD1F3296832F992787FD909523E061
:1002A00030E02C0F3D1F820F931F262F2150820F0D
:1002B000911D11931750E817F907D9F71CC1C60112
:1002C000811B910967E070E00E94600F662309F4CA
:1002D00012C1195FEC0FFD1F3296832F992787FDFE
:1002E0009095A3E0B0E0AC0FBD1F8A0F9B1F262F97
:1002F0002150820F911D1193195FE817F907D9F763
:10030000FAC055230CF0F4C0411718F5812F90E086
:100310008C199D0967E070E00E94600F662309F464
:10032000EAC01750EC0FFD1F3296832F992787FDE7
:10033000909523E030E02C0F3D1F820F931F262F56
:100340002150820F911D11931750E817F907D9F723
:10035000D2C0C601811B910967E070E00E94600F66
:10036000662309F4C8C0195FEC0FFD1F3296832F76
:10037000992787FD9095A3E0B0E0AC0FBD1F8A0FD1
:100380009B1F262F2150820F911D1193195FE81793
:10039000F907D9F7B0C0E32EE194EE2DFF27E7FD72
:1003A000F095FF239CF080E090E030E061E070E0A9
:1003B0006C0F7D1F860F971F622F631BDC016C93F0
:1003C0003F5F832F90E0E817F90784F715160CF0CC
:1003D00047C0411718F5812F90E08C199D0967E0FF
:1003E00070E00E94600F662309F485C01750EC0F7F
:1003F000FD1F32968E2D992787FD909523E030E0E2
:100400002C0F3D1F820F931F262F2150820F911D0D
:1004100011931750E817F907D9F76DC0C601811B72
:10042000910967E070E00E94600F662309F463C0E1
:10043000195FEC0FFD1F32968E2D992787FD909541
:10044000A3E0B0E0AC0FBD1F8A0F9B1F262F2150E9
:10045000820F911D1193195FE817F907D9F74BC067
:1004600055230CF047C0411710F5812F90E08C19EF
:100470009D0967E070E00E94600F6623E1F117506C
:10048000EC0FFD1F32968E2D992787FD909523E066
:1004900030E02C0F3D1F820F931F262F2150820F1B
:1004A000911D11931750E817F907D9F724C0C60119
:1004B000811B910967E070E00E94600F6623D9F00C
:1004C000195FEC0FFD1F32968E2D992787FD9095B1
:1004D000A3E0B0E0AC0FBD1F8A0F9B1F262F215059
:1004E000820F911D1193195FE817F907D9F703C01F
:1004F00060E001C060E06E0D609380006F5F6F3060
:1005000050F4E1E0F0E0EC0FFD1FE60FF11D10826A
:100510006F5F6F30B1F7E02FFF2DDE0111968FE096
:100520000D9001928150E1F7802F9F2D2F960FB6ED
:10053000F894DEBF0FBECDBFDF91CF911F910F9119
:10054000FF90EF90DF90CF90089587B38F6087BBC7
:1005500088B3807F88BB81B3806381BB82B38063B3
:1005600082BB08958B98939A08958A98929A0895D9
:100570000E94A5020E94B2020E94B5020895F8945A
:1005800085B7886085BF8BB780688BBF78940895E6
:10059000F89485B7826085BF8BB780648BBF7894F1
:1005A00008951F920F920FB60F9211248F939F936D
:1005B000AF93BF938091780090917900A0917A00D9
:1005C000B0917B000196A11DB11D8093780090939E
:1005D0007900A0937A00B0937B00BF91AF919F9177
:1005E0008F910F900FBE0F901F9018951F920F9232
:1005F0000FB60F9211248F939F93AF93BF93809167
:100600007C0090917D00A0917E00B0917F000196CA
:10061000A11DB11D80937C0090937D00A0937E006E
:10062000B0937F00BF91AF919F918F910F900FBEBC
:100630000F901F90189598B3907F8F70982B98BB50
:10064000089586E00E941B03089589E00E941B0321
:10065000089585E00E941B0308958AE00E941B0311
:10066000089584E00E941B03089582E00E941B030A
:10067000089581E00E941B03089588E00E941B03F7
:10068000089580E00E941B0308950F931F93CF935A
:10069000BC0180E090E00E94D20E2AE939E94DE4E5
:1006A00051E40E943E0E0E94A60EDC01CB01A0E0A8
:1006B000B0E0109278001092790010927A001092B7
:1006C0007B0010927C0010927D0010927E001092B0
:1006D0007F00F1E0C0E04091780050917900609196
:1006E0007A0070917B0000917C0010917D00209138
:1006F0007E0030917F00EF2F481759076A077B076C
:1007000008F4EC2FEE2349F44F2F081719072A0796
:100710003B0708F44C2F4423F1F20E944103CF9190
:100720001F910F910895BC0180E090E00E94D20ECD
:1007300022E538EB4EE451E40E943E0E0E94A60EE4
:10074000462F572F682F792F10927800109279003A
:1007500010927A0010927B0080917800909179003D
:10076000A0917A00B0917B00481759076A077B0770
:1007700098F70E9441030895CF93DF93EC010E9404
:100780002103CE010E949303DF91CF910895CF936F
:10079000DF93EC010E942503CE010E949303DF91B9
:1007A000CF910895CF93DF93EC010E942903CE01EE
:1007B0000E944503DF91CF910895CF93DF93EC0121
:1007C0000E942D03CE010E944503DF91CF91089531
:1007D000CF93DF93EC010E943103CE01880F991F64
:1007E0000E944503DF91CF910895CF93DF93EC01F1
:1007F0000E943503CE01880F991F0E944503DF91A7
:10080000CF910895CF93DF93EC010E943903CE017D
:10081000880F991F0E944503DF91CF910895CF93D0
:10082000DF93EC010E943D03CE01880F991F0E94C7
:100830004503DF91CF910895F8940E94B8020E9479
:10084000BF020E94C802789408958F9A979A0895DB
:100850000E942504089515BC8EEF84BD8FE883BDEA
:1008600088E685BD85B5856085BD0895F8940E94AC
:1008700028040E942B0478940895682F70E080E08B
:1008800090E00E94D20E2BE734E14EEE5FE30E942F
:100890003E0E20E030E04CE052E40E94DA0D0E946F
:1008A000A60E63BD08958FE883BD08951ABA1BBADA
:1008B00008958E9A82B312BA08950E9456040E9437
:1008C0005904089516B880E287B980E888B986E8A7
:1008D00086B908958770806287B9369A349BFECFB7
:1008E00085B1349A0895969A8BE78A95F1F7969890
:1008F0000895F8940E945D040E946204789408951B
:10090000CF93CAE50E94790481E00E946A04880FAF
:100910008093D80081E00E946A04880F8093D800F9
:100920008FEF9FE3A2E081509040A040E1F700C02C
:1009300000000E9436048C2F0E943D04AFEFB7E404
:100940001197F1F700C000008091D800893C18F1A0
:100950008FEF9FE7A6E181509040A040E1F700C0F3
:10096000000084E6809374000E94A0088FEF9FE34C
:10097000A2E081509040A040E1F700C000000E943A
:1009800049008FEF9FE3ABE081509040A040E1F73A
:1009900000C0000004C0CE5FCA3C09F0B3CF8AE5B6
:1009A0000E943D048FEF9FE3ABE081509040A04058
:1009B000E1F700C00000CF910895CF93CAE50E94EF
:1009C000790481E00E946A04880F8093D80081E056
:1009D0000E946A04880F8093D8008FEF9FE3A2E003
:1009E00081509040A040E1F700C000000E94360412
:1009F0008C2F0E943D04AFEFB7E41197F1F700C0D0
:100A000000008091D800893C18F18FEF9FE7A6E1A4
:100A100081509040A040E1F700C0000085E680933F
:100A200074000E94A0088FEF9FE3A2E081509040E5
:100A3000A040E1F700C000000E9449008FEF9FE353
:100A4000ABE081509040A040E1F700C0000004C03E
:100A5000C250C83009F0B3CF8AE50E943D048FEF41
:100A60009FE3A2E081509040A040E1F700C0000069
:100A7000CF91089584B3876F84BB85B3807885BB9D
:100A800008951ABA1BBA089587B38F6087BB88B3DD
:100A9000807F88BB81B3806381BB82B3806382BB6C
:100AA00008950E943A050E9441050E944405089558
:100AB0001EBC8FEF8DBD91E09CBD1BBC8ABD19BCD7
:100AC00088BD17BC86BD81EA8FBD8DE08EBD0895BF
:100AD00016B880E287B980E888B986E886B90895B3
:100AE0008770806287B9369A349BFECF85B1349A7D
:100AF0000895842F0E9470058093D700089598B3BD
:100B0000907F8F70982B98BB089586E00E947F0598
:100B1000089589E00E947F05089585E00E947F0581
:100B200008958AE00E947F05089580E00E947F0575
:100B3000089584E00E947F05089582E00E947F0569
:100B400008958FE00E947F0508951BBC8ABD19BCE3
:100B500068BD08950F931F93CF93DF93EC0182300C
:100B60009105B1F08330910519F18130910579F546
:100B70000E9485058DE76DE70E94A5058FEF9FE335
:100B8000A2E081509040A040E1F700C000001FC0EB
:100B90000E94850582E86EE10E94A5058FEF9FE91E
:100BA000A7E181509040A040E1F700C000000FC0D5
:100BB0000E9485058EE162E80E94A5058FEF9FE9FE
:100BC000A7E181509040A040E1F700C0000083E021
:100BD0000E947005082F82E00E947005182F81E0A6
:100BE0000E9470051931F0F5093108F04DC08931C6
:100BF000D8F5C230D105B1F0C330D10519F1C130FB
:100C0000D10529F70E9485058DE76DE70E94A505AE
:100C10008FEF9FE3A2E081509040A040E1F700C039
:100C20000000D5CF0E94850582E86EE10E94A505EF
:100C30008FEF9FE3A2E081509040A040E1F700C019
:100C40000000C5CF0E9485058EE162E80E94A505DF
:100C50008FEF9FE3A2E081509040A040E1F700C0F9
:100C60000000B5CF093180F40E94850582E86EE16D
:100C70000E94A5058FEF9FEBA6E081509040A04019
:100C8000E1F700C0000024C0893180F40E9485058E
:100C90008EE162E80E94A5058FEF9FEBA6E08150F0
:100CA0009040A040E1F700C0000012C01A3108F4E3
:100CB0008ECF0E94850587E867E80E94A5058FEF23
:100CC0009FEBA6E081509040A040E1F700C00000FB
:100CD000DF91CF911F910F910895F8940E945105D3
:100CE0000E9458050E94680578940895CF93DF9379
:100CF0000E946D068CE36CE30E94A50583E00E94D0
:100D000070058093700084E00E94700580936F00EE
:100D100085E00E94700580936E0081E061E043E011
:100D20000E94790581E065E044E00E94790581E058
:100D300069E045E00E94790580916F008B3078F47E
:100D4000909170009B3058F490916E009B3038F475
:100D500084E164E10E94A5050E948905F5C0853102
:100D600078F0909170009B3058F490916E009B3019
:100D700038F48CE36CE30E94A5050E948505E4C06D
:100D80008B3078F4909170009B3058F490916E0005
:100D9000953138F08CE364E10E94A5050E9491052D
:100DA000D3C0853178F0909170009B3058F49091C9
:100DB0006E00953138F08CE364E10E94A5050E9435
:100DC0009D05C2C08B3078F490917000953158F039
:100DD00090916E009B3038F484E16CE30E94A5058D
:100DE0000E949905B1C0853108F4AEC080917000B1
:100DF000853108F4A9C080916E008B3008F0A9C03D
:100E000084E16CE30E94A5050E948D059DC00E94AF
:100E1000C8000E94410380916500823021F40E9445
:100E200080040E94DD0480916500833009F086C053
:100E300080917600E8ECF0E0E80FF11D80818E32C1
:100E4000A9F40E941C0484E690E00E94DD030E9445
:100E500041038FEF9FE3ABE081509040A040E1F76A
:100E600000C0000081E0809366001AC08230C1F4A7
:100E70000E941C0480916700883091F084E690E025
:100E80000E94D2030E9441038FEF9FE3ABE08150A9
:100E90009040A040E1F700C0000083E0809366002E
:100EA00080917300882309F452C080917600E8ECA9
:100EB000F0E0E80FF11D50818091F300581769F0C0
:100EC000C0E023EF30E01BC08C2F90E0F901E80F69
:100ED000F91F4081541799F403C080E090E0C0E00E
:100EE0008C509F4FDC018C91D1E05813D0E0DF5F34
:100EF0000E94C8000E94C800D13041F019C0CF5FE5
:100F000080917300C81700F3D0E012C0D0E0FE015A
:100F1000E150FF4F8081843619F40E9480040EC096
:100F2000C150DF4F8881853649F40E94DD0406C038
:100F3000D23021F40E9480040E94DD040E946D06DC
:100F40000E94220A0E949505DF91CF910895D0E07A
:100F5000EFCF80916E008531B8F359CF8E98969A75
:100F600008950E94AE070895F8941FBC81E88EBDD5
:100F700080E289BF789408951F920F920FB60F9266
:100F800011248F939F93AF93BF9380916A009091A8
:100F90006B00A0916C00B0916D000196A11DB11D78
:100FA00080936A0090936B00A0936C00B0936D00E7
:100FB000BF91AF919F918F910F900FBE0F901F9097
:100FC0001895F8940E94B1070E94B4077894089588
:100FD000AA98AF980895AA9AAF9A0895AA98AF9A36
:100FE0000895AA9AAF980895A89AA99808950E947A
:100FF000E80710926A0010926B0010926C00109239
:101000006D008FEF9FE3A2E081509040A040E1F798
:1010100000C0000080916A0090916B00A0916C006C
:10102000B0916D008093C4009093C500A093C6005A
:10103000B093C70008950E94EB0710926A001092C7
:101040006B0010926C0010926D008FEF9FE3A2E096
:1010500081509040A040E1F700C0000080916A00FC
:1010600090916B00A0916C00B0916D008093C000D6
:101070009093C100A093C200B093C30008950E9452
:10108000EE0710926A0010926B0010926C001092A2
:101090006D008FEF9FE3A2E081509040A040E1F708
:1010A00000C0000080916A0090916B00A0916C00DC
:1010B000B0916D0080939A0090939B00A0939C0048
:1010C000B0939D0008958F929F92AF92BF92EF923E
:1010D000FF920F931F934B015C01DA01C901B80124
:1010E000A70188159905AA05BB0568F4E814F90459
:1010F0000A051B0540F4AC9A85B38F7985BB81E066
:101100008093750014C0481759076A077B0740F49D
:10111000AD9A85B38F7A85BB82E08093750007C056
:10112000AE9A85B38F7C85BB83E0809375001F9159
:101130000F91FF90EF90BF90AF909F908F90089588
:10114000EF92FF920F931F93CF93DF930E94E107DB
:1011500084B38FEF84BB15BA0E94F40780916500B9
:10116000823071F5C5E0D0E00E94F7070E941B08AD
:101170000E943F086091C4007091C5008091C60034
:101180009091C7002091C0003091C1004091C200F1
:101190005091C300E0909A00F0909B0000919C0059
:1011A00010919D000E9463088FEF9FE3ABE0815098
:1011B0009040A040E1F700C000002197A9F610C0C0
:1011C000AC9A85B38F7985BB81E0809375008FEFF2
:1011D0009FE3ABE081509040A040E1F700C00000E9
:1011E000DF91CF911F910F91FF90EF900895A39AF7
:1011F000AB9808950E94F70808951AB81BB886E8BE
:1012000080BD8FE289B910BC88E98AB90895893117
:10121000E9F18A3190F48B30A9F18C3038F48430C4
:1012200079F1893009F18230F1F53CC0823161F108
:101230008731F1F08031B9F519C0873259F1883220
:1012400038F4803229F18532B9F08E3161F512C05F
:101250008E3211F18F3218F48C3229F50FC084369A
:10126000E9F0853601F51CC099E01DC090E11BC076
:1012700097E119C09EE117C095E215C09CE213C02A
:1012800094E011C09BE00FC092E10DC099E10BC04A
:1012900090E209C097E207C09EE205C094E603C051
:1012A00095E601C092E0892F089583B3886085BBDD
:1012B000089583B3877F85BB0895F8940E94FA0848
:1012C0000E94FD08789408951F920F920FB60F9216
:1012D00011240F931F932F933F934F935F936F931B
:1012E0007F938F939F93AF93BF93CF93EF93FF938E
:1012F000CCB1C333D1F481E0809360000E94C00080
:101300008FEF9FEBA6E081509040A040E1F700C036
:1013100000000E94C4008FEF9FEBA6E08150904038
:10132000A040E1F700C000001FC0C433E9F41092F0
:101330006000809171008F5F809371000E94C000F7
:101340008FEF9FEBA6E081509040A040E1F700C0F6
:1013500000000E94C4008FEF9FEBA6E081509040F8
:10136000A040E1F700C0000080916000813009F0EA
:1013700053C08C2F8150803330F50091730010E002
:101380008C2F0E940709F801ED50FF4F8083809158
:1013900073008F5F809373000E94C0008FEF9FEBFC
:1013A000A6E081509040A040E1F700C000000E94FC
:1013B000C4008FEF9FEBA6E081509040A040E1F782
:1013C00000C0000029C08C2F8456823028F500917F
:1013D000720010E08C2F0E940709F801E150FF4FC6
:1013E0008083809172008F5F809372000E94C000A2
:1013F0008FEF9FEBA6E081509040A040E1F700C046
:1014000000000E94C4008FEF9FEBA6E08150904047
:10141000A040E1F700C00000FF91EF91CF91BF9194
:10142000AF919F918F917F916F915F914F913F917C
:101430002F911F910F910F900FBE0F901F90189535
:101440008CB908950F931F93CF93DF930E94DF0011
:101450009091760080918000981709F067C1809183
:101460006500813009F04DC00E941C048091660027
:10147000813081F48EEB90E00E94DD030E944103F5
:101480008FEF9FE3ABE081509040A040E1F700C0B8
:10149000000023C0823081F484E690E00E94DD03E6
:1014A0000E9441038FEF9FE3ABE081509040A0404A
:1014B000E1F700C0000011C0843079F484E690E0C8
:1014C0000E94D2030E9441038FEF9FE3ABE0815063
:1014D0009040A040E1F700C0000083E080936600E8
:1014E0008FEF9FE7A6E181509040A040E1F700C058
:1014F000000081E0809381000E94C8000E946D0678
:1015000015C1823009F007C18FEF9FE3A2E081503F
:101510009040A040E1F700C000008091710082304F
:10152000E0F397E390938200E0916200F0E0EE57E1
:10153000FF4F88E380839093A000E0916100F0E08A
:10154000E056FF4F808380918200882309F0A5C177
:1015500019C0F801EC0FFD1F8081882399F0F80174
:10156000EC0FFD1F80810E94200A8FEF9FE7A6E10C
:1015700081509040A040E1F700C000002196CB30A0
:10158000D10539F70E94C0008FEF9FE7A6E1815097
:101590009040A040E1F700C000000E94C40080918C
:1015A000A000882309F067C119C0F801EC0FFD1FE6
:1015B0008081882399F0F801EC0FFD1F80810E9443
:1015C000200A8FEF9FE7A6E181509040A040E1F70D
:1015D00000C000002196CA30D10539F70E94C00032
:1015E0008FEF9FE7A6E181509040A040E1F700C057
:1015F00000000E94C40095E390938E00E091640087
:10160000F0E0E257FF4F86E380839093AC00E091D7
:101610006300F0E0E455FF4F808380918E008823C3
:1016200009F016C11AC0F801EC0FFD1F8081882354
:10163000A1F0F801EC0FFD1F8081895F0E94200A54
:101640008FEF9FE7A6E181509040A040E1F700C0F6
:1016500000002196CB30D10531F70E94C0008FEFFA
:101660009FE7A6E181509040A040E1F700C0000054
:101670000E94C4008091AC008823A1F1C0E0D0E0BA
:101680000CEA10E006C0F801EC0FFD1F80818823F2
:1016900049F1F801EC0FFD1F8081843669F485E67D
:1016A0000E94200A8FEF9FE7A6E181509040A04062
:1016B000E1F700C0000012C0F801EC0FFD1F8081AF
:1016C000853661F484E60E94200A8FEF9FE7A6E149
:1016D00081509040A040E1F700C000002196CA3040
:1016E000D10589F60E94C0008FEF9FE7A6E18150E7
:1016F0009040A040E1F700C000000E94C40080912B
:1017000071008430E0F30E94C8000E94C80081E0AC
:10171000809381000BC0833021F481E080938100AD
:1017200005C0843019F481E0809381002091760017
:1017300080918000281708F0C2C0E8ECF0E0E20FCA
:10174000F11D808190E03181831B91092F5F2093EF
:101750007600AFEF8F3F9A0769F1BFEF8F3F9B078E
:1017600009F034F42FEF893F920709F0A8C056C062
:101770008130910529F08730910509F0A0C034C06F
:1017800080916600813029F483E090E00E94AA05F0
:101790000DC0833029F482E090E00E94AA0506C0C3
:1017A000843021F481E090E00E94AA0584E08093D7
:1017B000660085C080916600813029F482E090E067
:1017C0000E94AA050DC0823029F481E090E00E94B9
:1017D000AA0506C0833021F483E090E00E94AA05A8
:1017E00082E0809366006BC080916600813029F4AE
:1017F00081E090E00E94AA050DC0823029F483E0C8
:1018000090E00E94AA0506C0843021F482E090E0B6
:101810000E94AA0581E08093660051C08091660015
:10182000823029F482E090E00E94AA050DC0833046
:1018300029F481E090E00E94AA0506C0843021F4DA
:1018400083E090E00E94AA0583E08093660037C0A1
:1018500080918E00895F0E94200A8FEF9FE7A6E1AA
:1018600081509040A040E1F700C00000C1E0D0E00E
:101870000EE810E0D8CE8091A0000E94200A8FEFE1
:101880009FE7A6E181509040A040E1F700C0000032
:10189000C1E0D0E000EA10E088CE809182000E9492
:1018A000200A8FEF9FE7A6E181509040A040E1F72A
:1018B00000C00000C1E0D0E002E810E04ACEDF91B5
:1018C000CF911F910F91089580E090E02EE830E0D5
:1018D00042E850E0F901E80FF91F1082FA01E80F21
:1018E000F91F108201968B309105A1F780E090E0FE
:1018F0002CEA30E040EA50E0F901E80FF91F1082CD
:10190000FA01E80FF91F1082019685319105A1F7C0
:101910000895CF93DF93CDB7DEB72F970FB6F89426
:10192000DEBF0FBECDBFCE01019660916800409131
:1019300067000E94E400A8ECB0E0FE0131968FE061
:1019400001900D928150E1F70E946D060E9476068B
:10195000809181008130D1F7109281001092770040
:10196000109276000E94890584E664E60E94A5052F
:101970008FEF9FEBA1E281509040A040E1F700C0C3
:10198000000080916700809368002F960FB6F8944E
:10199000DEBF0FBECDBFDF91CF91089580E287BB40
:1019A0000E945D0981E0809365001092760080912D
:1019B0006800609167000E94890C0E94C0008FEF50
:1019C0009FE7A6E181509040A040E1F700C00000F1
:1019D0000E94C40082E08093650080E380936700EA
:1019E0000E94640C80916800609167000E94890CDD
:1019F0000E94C0008FEF9FE7A6E181509040A04079
:101A0000E1F700C000000E94C40083E080936500FD
:101A100084E0809367008091680064E00E94890CF4
:101A20000E94C0008FEF9FE7A6E181509040A04048
:101A3000E1F700C000000E94C4006091670080E0F0
:101A400090E040E023EF30E010E171E0DEE1C7E13B
:101A5000B2E0A9E0F901E80FF91F50815031A1F07F
:101A6000513128F4523051F05930C9F40AC05E3176
:101A700089F0553291F0573191F409C06B2F472FFF
:101A80000EC06A2F472F0BC0612F472F08C06C2F45
:101A9000472F05C06D2F472F02C065E2472F0196E3
:101AA0008B309105B9F660936700442309F446C072
:101AB000809168000E94890C0E94C0008FEF9FE710
:101AC000A6E181509040A040E1F700C000000E94D4
:101AD000C40088E0809367008091680068E00E94FD
:101AE000890C0E94C0008FEF9FE3ABE081509040D3
:101AF000A040E1F700C000000E94C4008FEF9FE308
:101B0000ABE081509040A040E1F700C000000E948F
:101B1000C0008FEF9FE3ABE081509040A040E1F721
:101B200000C000000E94C4008FEF9FE3ABE0815033
:101B30009040A040E1F700C0000034C088E08093EE
:101B400067008091680068E00E94890C0E94C000D4
:101B50008FEF9FE3ABE081509040A040E1F700C0E1
:101B600000000E94C4008FEF9FE3ABE081509040E3
:101B7000A040E1F700C000000E94C0008FEF9FE38B
:101B8000ABE081509040A040E1F700C000000E940F
:101B9000C4008FEF9FE3ABE081509040A040E1F79D
:101BA00000C000000E94850580E060E00E94A5055D
:101BB000FFCF5058BB27AA270ED048C139D130F0EB
:101BC0003ED120F031F49F3F11F41EF42EC10EF4EB
:101BD000E095E7FB24C1E92F4AD180F3BA176207E9
:101BE00073078407950718F071F49EF562C10EF42F
:101BF000E0950B2EBA2FA02D0B01B90190010C011D
:101C0000CA01A0011124FF27591B99F0593F50F434
:101C1000503E68F11A16F040A22F232F342F44278C
:101C2000585FF3CF469537952795A795F040539584
:101C3000C9F77EF41F16BA0B620B730B840BBAF054
:101C40009150A1F0FF0FBB1F661F771F881FC2F7BF
:101C50000EC0BA0F621F731F841F48F487957795D3
:101C60006795B795F7959E3F08F0B3CF9395880F8A
:101C700008F09927EE0F9795879508950CD0E6C048
:101C8000DED040F0D5D030F021F45F3F19F0C7C06E
:101C9000511110C1CAC0EBD098F39923C9F3552351
:101CA000B1F3951B550BBB27AA276217730784074F
:101CB00038F09F5F5F4F220F331F441FAA1FA9F305
:101CC00033D00E2E3AF0E0E830D091505040E695F7
:101CD000001CCAF729D0FE2F27D0660F771F881F58
:101CE000BB1F261737074807AB07B0E809F0BB0B47
:101CF000802DBF01FF2793585F4F2AF09E3F51056B
:101D000068F08DC0D7C05F3FECF3983EDCF386955A
:101D100077956795B795F7959F5FC9F7880F911DE0
:101D20009695879597F90895E1E0660F771F881FCC
:101D3000BB1F621773078407BA0720F0621B730B7F
:101D4000840BBA0BEE1F88F7E095089598D088F0C1
:101D50009F5790F0B92F9927B751A0F0D1F0660F97
:101D6000771F881F991F1AF0BA95C9F712C0B130B2
:101D700081F09FD0B1E008959CC0672F782F88270D
:101D8000B85F39F0B93FCCF3869577956795B395F1
:101D9000D9F73EF490958095709561957F4F8F4F60
:101DA0009F4F0895E89409C097FB3EF49095809565
:101DB000709561957F4F8F4F9F4F9923A9F0F92F11
:101DC00096E9BB279395F695879577956795B7958F
:101DD000F111F8CFFAF4BB0F11F460FF1BC06F5F75
:101DE0007F4F8F4F9F4F16C0882311F096E911C087
:101DF000772321F09EE8872F762F05C0662371F0A8
:101E000096E8862F70E060E02AF09A95660F771FBB
:101E1000881FDAF7880F9695879597F9089597F9AF
:101E20009F6780E870E060E008959FEF80EC089580
:101E300000240A94161617061806090608950024A9
:101E40000A9412161306140605060895092E039423
:101E5000000C11F4882352F0BB0F40F4BF2B11F497
:101E600060FF04C06F5F7F4F8F4F9F4F089557FDF6
:101E70009058440F551F59F05F3F71F04795880FF8
:101E800097FB991F61F09F3F79F08795089512168F
:101E900013061406551FF2CF4695F1DF08C016163B
:101EA00017061806991FF1CF8695710561050894EC
:101EB0000895E894BB2766277727CB0197F9089503
:101EC00097FB092E07260AD077FD04D00CD006D048
:101ED00000201AF4709561957F4F0895F6F790955C
:101EE00081959F4F0895AA1BBB1B51E107C0AA1FF4
:101EF000BB1FA617B70710F0A61BB70B881F991FAB
:101F00005A95A9F780959095BC01CD010895F89454
:021F1000FFCF01
:0A1F120002010101010102061600A0
:04000005008000680F
:00000001FF
