:100000000C942A000C94CD020C94F2020C9447003C
:100010000C9447000C946E070C9447000C94470016
:100020000C9447000C9447000C9447000C9416095C
:100030000C9447000C9447000C9447000C94470024
:100040000C9447000C9447000C9447000C94470014
:100050000C94470011241FBECFE5D4E0DEBFCDBF16
:1000600010E0A0E6B0E0EEE3FDE102C005900D92E5
:10007000AA36B107D9F711E0AAE6B0E001C01D9297
:10008000A031B107E1F70E94770C0C949D0E0C94FF
:100090000000809172008130F1F4909164008091B1
:1000A0007300E5ECF0E0E80FF11D8081E0EFF0E097
:1000B000E90FF11D80838091630020917100ECEFC6
:1000C000F0E0E80FF11D20839F5F909364008F5F45
:1000D000809363001FC08230E9F4909162008091A8
:1000E0007300E5ECF0E0E80FF11D8081EFE7F0E050
:1000F000E90FF11D80838091610020917100EDE98D
:10010000F0E0E80FF11D20839F5F909362008F5F06
:100110008093610080917200833001F587E990E05F
:10012000C59AE9E9F3E03197F1F700C0C598E6E632
:10013000FCE83197F1F70000019791F787E990E02B
:10014000C59AEEE1F6E03197F1F700C0C598E1EE0F
:10015000F9E83197F1F70000019791F710927200DA
:100160001092710085B38F7885BB0895A39AAB98E0
:1001700008950E94B600089583B3886085BB0895F2
:1001800083B3877F85BB08950E94BC008FEF9FE7F4
:10019000A4E081509040A040E1F700C000000E9420
:1001A000C0008FEF9FE7A4E081509040A040E1F7AE
:1001B00000C000000895F8940E94B9007894089552
:1001C000CF92DF92EF92FF920F931F93CF93DF9323
:1001D000CDB7DEB72F970FB6F894DEBF0FBECDBFF9
:1001E000082FF92E262FC42EDD24862F90E00197AC
:1001F000E7E0F0E0BF010E94760E362FC6010197BE
:10020000BF010E94760E361B532F13163CF4132F9A
:10021000110F110F110F131B140F06C0132F110F05
:10022000110F110F131B140F312F321BE32E131656
:100230000CF0ADC0E32FFF27E7FDF095FF239CF006
:1002400080E090E060E0A1E0B0E0AC0FBD1F8A0F5D
:100250009B1F762F720FDC017C936F5F862F90E0DF
:10026000E817F90784F715160CF047C0411718F581
:10027000812F90E08C199D0967E070E00E94760E56
:10028000662309F434C11750EC0FFD1F3296832FFB
:10029000992787FD909523E030E02C0F3D1F820FBA
:1002A000931F262F2150820F911D11931750E8178D
:1002B000F907D9F71CC1C601811B910967E070E0FD
:1002C0000E94760E662309F412C1195FEC0FFD1F20
:1002D0003296832F992787FD9095A3E0B0E0AC0F6D
:1002E000BD1F8A0F9B1F262F2150820F911D119336
:1002F000195FE817F907D9F7FAC055230CF0F4C0D5
:10030000411718F5812F90E08C199D0967E070E086
:100310000E94760E662309F4EAC01750EC0FFD1F09
:100320003296832F992787FD909523E030E02C0F9C
:100330003D1F820F931F262F2150820F911D119375
:100340001750E817F907D9F7D2C0C601811B9109E8
:1003500067E070E00E94760E662309F4C8C0195F5A
:10036000EC0FFD1F3296832F992787FD9095A3E010
:10037000B0E0AC0FBD1F8A0F9B1F262F2150820FAC
:10038000911D1193195FE817F907D9F7B0C0E32E53
:10039000E194EE2DFF27E7FDF095FF239CF080E030
:1003A00090E030E061E070E06C0F7D1F860F971FDA
:1003B000622F631BDC016C933F5F832F90E0E81793
:1003C000F90784F715160CF047C0411718F5812F6F
:1003D00090E08C199D0967E070E00E94760E66231C
:1003E00009F485C01750EC0FFD1F32968E2D99270A
:1003F00087FD909523E030E02C0F3D1F820F931F67
:10040000262F2150820F911D11931750E817F907DD
:10041000D9F76DC0C601811B910967E070E00E94A9
:10042000760E662309F463C0195FEC0FFD1F329648
:100430008E2D992787FD9095A3E0B0E0AC0FBD1FEE
:100440008A0F9B1F262F2150820F911D1193195F38
:10045000E817F907D9F74BC055230CF047C04117EF
:1004600010F5812F90E08C199D0967E070E00E94E3
:10047000760E6623E1F11750EC0FFD1F32968E2D9C
:10048000992787FD909523E030E02C0F3D1F820FC8
:10049000931F262F2150820F911D11931750E8179B
:1004A000F907D9F724C0C601811B910967E070E004
:1004B0000E94760E6623D9F0195FEC0FFD1F32966D
:1004C0008E2D992787FD9095A3E0B0E0AC0FBD1F5E
:1004D0008A0F9B1F262F2150820F911D1193195FA8
:1004E000E817F907D9F703C060E001C060E06E0DBE
:1004F00060937D006F5F6F3050F4E1E0F0E0EC0F4F
:10050000FD1FE60FF11D10826F5F6F30B1F7E02F16
:10051000FF2DDE0111968FE00D9001928150E1F7E1
:10052000802F9F2D2F960FB6F894DEBF0FBECDBF44
:10053000DF91CF911F910F91FF90EF90DF90CF90BF
:10054000089587B38F6087BB88B3807F88BB81B3F2
:10055000806381BB82B3806382BB08958B98939A3A
:1005600008958A98929A08950E94A1020E94AE026C
:100570000E94B1020895F89485B7886085BF8BB753
:1005800080688BBF78940895F89485B7826085BFA2
:100590008BB780648BBF789408951F920F920FB62B
:1005A0000F9211248F939F93AF93BF938091750007
:1005B00090917600A0917700B09178000196A11DEE
:1005C000B11D8093750090937600A0937700B0934F
:1005D0007800BF91AF919F918F910F900FBE0F90B8
:1005E0001F9018951F920F920FB60F9211248F93A0
:1005F0009F93AF93BF938091790090917A00A091DF
:100600007B00B0917C000196A11DB11D8093790003
:1006100090937A00A0937B00B0937C00BF91AF9140
:100620009F918F910F900FBE0F901F90189598B3C8
:10063000907F8F70982B98BB089586E00E941703D7
:10064000089589E00E941703089585E00E9417032A
:1006500008958AE00E941703089584E00E9417031A
:10066000089582E00E941703089581E00E94170315
:10067000089588E00E941703089580E00E94170300
:1006800008950F931F93CF93BC0180E090E00E94E8
:10069000E80D2AE939E94DE451E40E94540D0E9425
:1006A000BC0DDC01CB01A0E0B0E01092750010920F
:1006B00076001092770010927800109279001092D4
:1006C0007A0010927B0010927C00F1E0C0E0409133
:1006D00075005091760060917700709178000091DC
:1006E000790010917A0020917B0030917C00EF2FEF
:1006F000481759076A077B0708F4EC2FEE2349F4E3
:100700004F2F081719072A073B0708F44C2F4423DB
:10071000F1F20E943D03CF911F910F910895BC010A
:1007200080E090E00E94E80D22E538EB4EE451E4D1
:100730000E94540D0E94BC0D462F572F682F792F11
:100740001092750010927600109277001092780047
:100750008091750090917600A0917700B09178001B
:10076000481759076A077B0798F70E943D030895C9
:10077000CF93DF93EC010E941D03CE010E948F03F3
:10078000DF91CF910895CF93DF93EC010E94210375
:10079000CE010E948F03DF91CF910895CF93DF9315
:1007A000EC010E942503CE010E944103DF91CF910D
:1007B0000895CF93DF93EC010E942903CE010E949C
:1007C0004103DF91CF910895CF93DF93EC010E9415
:1007D0002D03CE01880F991F0E944103DF91CF9115
:1007E0000895CF93DF93EC010E943103CE01880F6F
:1007F000991F0E944103DF91CF910895CF93DF931A
:10080000EC010E943503CE01880F991F0E9441031D
:10081000DF91CF910895CF93DF93EC010E943903CC
:10082000CE01880F991F0E944103DF91CF91089557
:10083000F8940E94B4020E94BB020E94C402789401
:1008400008958F9A979A08950E942104089515BCDF
:100850008EEF84BD8FE883BD88E685BD85B5856054
:1008600085BD0895F8940E9424040E94270478947A
:100870000895682F70E080E090E00E94E80D2BE77B
:1008800034E14EEE5FE30E94540D20E030E04CE096
:1008900052E40E94F00C0E94BC0D63BD08958FE8E5
:1008A00083BD08951ABA1BBA08958E9A82B312BAFC
:1008B00008950E9452040E945504089516B880E2DB
:1008C00087B980E888B986E886B90895877080621C
:1008D00087B9369A349BFECF85B1349A0895969A9B
:1008E0008BE78A95F1F796980895F8940E94590439
:1008F0000E945E0478940895CF93CFE50E9475041A
:1009000081E00E946604880F8093D50081E00E94F8
:100910006604880F8093D5008FEF9FE3A2E081509B
:100920009040A040E1F700C000000E9432048C2FEC
:100930000E943904AFEFB7E41197F1F700C000004F
:100940008091D500893C30F18C2F0E9439048FEFC3
:100950009FE7A6E181509040A040E1F700C0000071
:1009600084E6809371000E9452088FEF9FE3A2E01B
:1009700081509040A040E1F700C000000E94490073
:100980008FEF9FE3ABE081509040A040E1F700C0C3
:10099000000004C0CD5FC63B09F0B0CF8FE50E94D8
:1009A00039048FEF9FE3ABE081509040A040E1F726
:1009B00000C00000CF910895CF93CFE50E94750449
:1009C00081E00E946604880F8093D50081E00E9438
:1009D0006604880F8093D5008FEF9FE3A2E08150DB
:1009E0009040A040E1F700C000000E9432048C2F2C
:1009F0000E943904AFEFB7E41197F1F700C000008F
:100A00008091D500893C28F10E944F048FEF9FE729
:100A1000A6E181509040A040E1F700C0000085E6CB
:100A2000809371000E9452088FEF9FE3A2E08150F3
:100A30009040A040E1F700C000000E9449008FEF05
:100A40009FE3ABE081509040A040E1F700C0000080
:100A500004C0C350C83009F0B1CF8FE50E943904FB
:100A60008FEF9FE3A2E081509040A040E1F700C0EB
:100A70000000CF9108951ABA1BBA089587B38F600A
:100A800087BB88B3807F88BB81B3806381BB82B31F
:100A9000806382BB08950E943B050E943E05089535
:100AA0001EBC8FEF8DBD91E09CBD1BBC8ABD19BCE7
:100AB00088BD17BC86BD81EA8FBD8DE08EBD0895CF
:100AC00016B880E287B980E888B986E886B90895C3
:100AD0008770806287B9369A349BFECF85B1349A8D
:100AE000089598B3907F8F70982B98BB089589E0F4
:100AF0000E947105089586E00E947105089580E0C6
:100B00000E94710508951BBC8ABD19BC68BD08957B
:100B10000F931F93CF93DF93EC0182309105B1F0D7
:100B20008330910519F18130910579F50E947B059B
:100B30008DE76DE70E9483058FEF9FE3A2E0815070
:100B40009040A040E1F700C000001FC00E947B055C
:100B500082E86EE10E9483058FEF9FE9A7E1815053
:100B60009040A040E1F700C000000FC00E947B054C
:100B70008EE162E80E9483058FEF9FE9A7E1815033
:100B80009040A040E1F700C0000083E00E946805AB
:100B9000082F82E00E946805182F81E00E946805F6
:100BA0001931F0F5093108F04DC08931D8F5C2305E
:100BB000D105B1F0C330D10519F1C130D10529F704
:100BC0000E947B058DE76DE70E9483058FEF9FE311
:100BD000A2E081509040A040E1F700C00000D5CFD6
:100BE0000E947B0582E86EE10E9483058FEF9FE300
:100BF000A2E081509040A040E1F700C00000C5CFC6
:100C00000E947B058EE162E80E9483058FEF9FE3DF
:100C1000A2E081509040A040E1F700C00000B5CFB5
:100C2000093180F40E947B0582E86EE10E94830511
:100C30008FEF9FEBA6E081509040A040E1F700C00D
:100C4000000024C0893180F40E947B058EE162E8B7
:100C50000E9483058FEF9FEBA6E081509040A0405B
:100C6000E1F700C0000012C01A3108F48ECF0E94D4
:100C70007B0587E867E80E9483058FEF9FEBA6E07E
:100C800081509040A040E1F700C00000DF91CF917B
:100C90001F910F910895F8940E944B050E945005F2
:100CA0000E94600578940895CF93DF930E94B60068
:100CB00083E00E946805D82F84E00E946805C82F51
:100CC00085E00E946805CC3358F4DC3348F48C335B
:100CD00038F40E947B0582E362E30E948305EBC047
:100CE000CD3358F0DC3348F48C3338F40E947B0564
:100CF00082E362E30E948305DEC0CC3358F4DC3328
:100D000048F48D3338F00E947B0582E363E20E9451
:100D10008305D1C0CD3358F0DC3348F48D3338F03F
:100D20000E947B0582E363E20E948305C4C0CC334A
:100D300058F4DD3348F08C3338F40E947B0583E2AD
:100D400062E30E948305B7C0CD3308F4B4C0DD333D
:100D500008F4B1C08C3338F40E947B0583E262E36F
:100D60000E948305A8C08D3308F4A5C00E94C4006A
:100D70000E943D038FEF9FE3ADE181509040A04082
:100D8000E1F700C00000809174008F5F80937400D1
:100D900080916500823021F40E947C040E94DC0472
:100DA00080916500833009F082C080917300E5EC8A
:100DB000F0E0E80FF11D80818230A9F40E94180450
:100DC00084E690E00E94CE030E943D038FEF9FE3F4
:100DD000ABE081509040A040E1F700C0000083E00C
:100DE0008093660016C08033A1F40E94180484E644
:100DF00090E00E94CE030E943D038FEF9FE3ABE0A3
:100E000081509040A040E1F700C0000081E0809355
:100E1000660080917000882309F450C080917300AF
:100E2000E5ECF0E0E80FF11D508180918B00581740
:100E300069F0C0E02BE830E01BC08C2F90E0F90196
:100E4000E80FF91F4081541799F403C080E090E047
:100E5000C0E084579F4FDC018C91D1E05813D0E063
:100E6000DF5F0E94C4000E94C400D13041F019C06D
:100E7000CF5F80917000C81700F3D0E012C0D0E0BF
:100E8000FE01E755FF4F8081843619F40E947C04EF
:100E90000EC0C755DF4F8881853649F40E94DC04B7
:100EA00006C0D23021F40E947C040E94DC040E941F
:100EB0004B060E94D409DF91CF910895D0E0F1CF85
:100EC0008E98969A08950E9460070895F8941FBC22
:100ED00081E88EBD80E289BF789408951F920F92B9
:100EE0000FB60F9211248F939F93AF93BF9380916E
:100EF0006A0090916B00A0916C00B0916D0001961A
:100F0000A11DB11D80936A0090936B00A0936C00AB
:100F1000B0936D00BF91AF919F918F910F900FBED5
:100F20000F901F901895F8940E9463070E9466071F
:100F300078940895AA98AF980895AA9AAF9A0895B8
:100F4000AA98AF9A0895AA9AAF980895A89AA998CE
:100F500008950E949A0710926A0010926B001092F6
:100F60006C0010926D008FEF9FE3A2E081509040E3
:100F7000A040E1F700C0000080916A0090916B00F2
:100F8000A0916C00B0916D008093C1009093C2005D
:100F9000A093C300B093C40008950E949D071092CF
:100FA0006A0010926B0010926C0010926D008FEF2F
:100FB0009FE3A2E081509040A040E1F700C0000014
:100FC00080916A0090916B00A0916C00B0916D00CF
:100FD0008093BD009093BE00A093BF00B093C0006B
:100FE00008950E94A00710926A0010926B00109260
:100FF0006C0010926D008FEF9FE3A2E08150904053
:10100000A040E1F700C0000080916A0090916B0061
:10101000A0916C00B0916D00809397009093980020
:10102000A0939900B0939A0008958F929F92AF92E7
:10103000BF92EF92FF920F931F934B015C01DA0175
:10104000C901B801A70188159905AA05BB0568F46F
:10105000E814F9040A051B0540F4AC9A85B38F79AE
:1010600085BB81E08093720014C0481759076A0756
:101070007B0740F4AD9A85B38F7A85BB82E080937D
:10108000720007C0AE9A85B38F7C85BB83E08093E6
:1010900072001F910F91FF90EF90BF90AF909F90C3
:1010A0008F900895EF92FF920F931F93CF93DF934A
:1010B0000E94930784B38FEF84BB15BA0E94A607E2
:1010C00080916500823071F5C5E0D0E00E94A907EB
:1010D0000E94CD070E94F1076091C1007091C2008B
:1010E0008091C3009091C4002091BD003091BE005A
:1010F0004091BF005091C000E0909700F0909800A0
:101100000091990010919A000E9415088FEF9FE3BB
:10111000ABE081509040A040E1F700C00000219773
:10112000A9F610C0AE9A85B38F7C85BB83E080930F
:1011300072008FEF9FE3ABE081509040A040E1F759
:1011400000C00000DF91CF911F910F91FF90EF90B1
:101150000895A39AAB9808950E94A90808951AB813
:101160001BB886E880BD8FE289B910BC88E98AB9CE
:1011700008958B31E9F18C3190F48D30E9F18E30A6
:1011800038F48630D9F1893009F18230F1F53CC06C
:10119000843181F18731F1F08031B9F519C089329C
:1011A00019F18A3238F4823209F18532B9F08E3180
:1011B00061F512C08033B1F0813318F48C3229F517
:1011C0000FC08436E9F0853601F51CC099E01DC0DA
:1011D00090E11BC097E119C09EE117C095E215C0D0
:1011E0009CE213C090E311C099E20FC092E20DC0DF
:1011F0009BE10BC094E109C09DE007C096E005C0EB
:1012000094E603C095E601C092E0892F089583B368
:10121000886085BB089583B3877F85BB0895F89464
:101220000E94AC080E94AF08789408951F920F9214
:101230000FB60F9211240F931F932F933F934F9349
:101240005F936F937F938F939F93AF93BF93CF934E
:10125000EF93FF93CCB1C533D1F481E0809360006C
:101260000E94BC008FEF9FEBA6E081509040A04011
:10127000E1F700C000000E94C0008FEF9FEBA6E0E6
:1012800081509040A040E1F700C000001FC0C6336D
:10129000E9F41092600080916E008F5F80936E0081
:1012A0000E94BC008FEF9FEBA6E081509040A040D1
:1012B000E1F700C000000E94C0008FEF9FEBA6E0A6
:1012C00081509040A040E1F700C000008091600094
:1012D000813009F053C08C2F8150803330F500915C
:1012E000700010E08C2F0E94B908F801E557FF4FFD
:1012F0008083809170008F5F809370000E94BC009B
:101300008FEF9FEBA6E081509040A040E1F700C036
:1013100000000E94C0008FEF9FEBA6E0815090403C
:10132000A040E1F700C0000029C08C2F8456823015
:1013300028F500916F0010E08C2F0E94B908F80189
:10134000E755FF4F808380916F008F5F80936F0020
:101350000E94BC008FEF9FEBA6E081509040A04020
:10136000E1F700C000000E94C0008FEF9FEBA6E0F5
:1013700081509040A040E1F700C00000FF91EF9144
:10138000CF91BF91AF919F918F917F916F915F911D
:101390004F913F912F911F910F910F900FBE0F9082
:1013A0001F9018958CB908950F931F93CF93DF93D7
:1013B0000E94DB009091730080917D00981709F0E6
:1013C0004DC180916500813009F046C08091660072
:1013D000833081F48EEB90E00E94D9030E943D039C
:1013E0002FEF3FE34BE0215030404040E1F700C099
:1013F000000023C0843081F484E690E00E94D90389
:101400000E943D038FEF9FE3ABE081509040A040EE
:10141000E1F700C0000011C0823079F484E690E06A
:101420000E94CE030E943D032FEF3FE34BE021508B
:1014300030404040E1F700C0000081E0809366004A
:101440002FEF3FE746E1215030404040E1F700C038
:10145000000080937E0002C1823009F0F4C00E9437
:101460000F098FEF9FE3A2E081509040A040E1F789
:1014700000C0000080916E008430E0F393E390930D
:10148000F000E0916400F0E0E051FF4F84E38083DE
:101490009093FC00E0916300F0E0E450FF4F808304
:1014A0008091F000882309F0A1C119C0F801EC0F68
:1014B000FD1F8081882399F0F801EC0FFD1F8081CA
:1014C0000E94D2092FEF3FE342E0215030404040DC
:1014D000E1F700C000002196CB30D10539F70E941A
:1014E000BC008FEF9FE7A6E181509040A040E1F75C
:1014F00000C000000E94C0008091FC00882309F019
:1015000063C119C0F801EC0FFD1F8081882399F099
:10151000F801EC0FFD1F80810E94D2092FEF3FE3FD
:1015200042E0215030404040E1F700C000002196E9
:10153000CA30D10539F70E94BC008FEF9FE7A6E1C2
:1015400081509040A040E1F700C000000E94C00020
:1015500097E390937F00E0916200F0E0E158FF4F45
:1015600088E3808390939D00E0916100F0E0E35672
:10157000FF4F808380917F00882309F013C119C039
:10158000F801EC0FFD1F8081882399F0F801EC0F22
:10159000FD1F80810E94D2092FEF3FE746E12150D5
:1015A00030404040E1F700C000002196CB30D1052B
:1015B00039F70E94BC008FEF9FE7A6E18150904071
:1015C000A040E1F700C000000E94C00080919D0093
:1015D000882309F0D5C019C0F801EC0FFD1F8081E8
:1015E000882399F0F801EC0FFD1F80810E94D20939
:1015F0002FEF3FE746E1215030404040E1F700C087
:1016000000002196CA30D10539F70E94BC008FEF47
:101610009FE7A6E181509040A040E1F700C00000A4
:101620000E94C00081E080937E000E94BC002FEFEA
:101630003FE746E1215030404040E1F700C0000064
:101640000E94C0000BC0833021F481E080937E00B3
:1016500005C0843019F481E080937E0020917300EE
:1016600080917D00281708F0D3C0E5ECF0E0E20F90
:10167000F11D808190E03181831B91092F5F2093C0
:1016800073003FEF8F3F930769F14FEF8F3F940750
:1016900009F034F45FEF893F950709F0B9C056C0EF
:1016A0008130910529F08730910509F0B1C034C02F
:1016B00080916600813029F483E090E00E948805E3
:1016C0000DC0833029F482E090E00E94880506C0B6
:1016D000843021F481E090E00E94880584E08093CA
:1016E000660096C080916600813029F482E090E027
:1016F0000E9488050DC0823029F481E090E00E94AC
:10170000880506C0833021F483E090E00E948805BC
:1017100082E0809366007CC080916600813029F46D
:1017200081E090E00E9488050DC0823029F483E0BA
:1017300090E00E94880506C0843021F482E090E0A9
:101740000E94880581E08093660062C080916600F7
:10175000823029F482E090E00E9488050DC0833039
:1017600029F481E090E00E94880506C0843021F4CD
:1017700083E090E00E94880583E08093660048C083
:1017800080919D000E94D2098FEF9FE7A6E18150D2
:101790009040A040E1F700C00000C1E0D0E00DE9BA
:1017A00010E01ACF80917F000E94D2092FEF3FE70F
:1017B00046E1215030404040E1F700C00000C1E068
:1017C000D0E00FE710E0DCCE8091FC000E94D2094F
:1017D0008FEF9FE3A2E081509040A040E1F700C06E
:1017E0000000C1E0D0E00CEF10E08CCE8091F00062
:1017F0000E94D2092FEF3FE342E0215030404040A9
:10180000E1F700C00000C1E0D0E000EF10E04ECEF4
:10181000DF91CF911F910F91089580E090E020EF2C
:1018200030E04FE750E0F901E80FF91F1082FA01AC
:10183000E80FF91F108201968B309105A1F780E027
:1018400090E02CEF30E04DE950E0F901E80FF91F8E
:101850001082FA01E80FF91F108201968531910577
:10186000A1F70895CF93DF93CDB7DEB72F970FB6CB
:10187000F894DEBF0FBECDBFCE0101966091680027
:10188000409167000E94E000A5ECB0E0FE013196B7
:101890008FE001900D928150E1F70E944B060E946B
:1018A000540680917E008130D1F710927E00109214
:1018B0007400109273000E94770584E664E60E942B
:1018C00083058FEF9FEBA1E281509040A040E1F7AC
:1018D00000C0000080916700809368002F960FB6CB
:1018E000F894DEBF0FBECDBFDF91CF91089580E2A7
:1018F00087BB0E94180480916800609167000E9475
:10190000320C0E94BC008FEF9FE7A6E1815090400F
:10191000A040E1F700C000000E94C00082E0809378
:10192000650084E0809367000E940D0C8091680040
:10193000609167000E94320C83E0809365008CE226
:1019400080936700809168006CE20E94320C8DE009
:10195000809367000E94BC008FEF9FE7A6E1815053
:101960009040A040E1F700C000000E94BC008091C0
:101970006800609167000E94320C0E94BC008FEFEB
:101980009FE7A6E181509040A040E1F700C0000031
:101990000E94C0008EE080936700809168006EE036
:1019A0000E94320C0E94BC008FEF9FEFACE281508E
:1019B0009040A040E1F700C000000E94BC000E94DF
:1019C0007B0580E060E00E9483058FEF9FEBA1E242
:1019D00081509040A040E1F700C00000FFCF505878
:1019E000BB27AA270ED048C139D130F03ED120F014
:1019F00031F49F3F11F41EF42EC10EF4E095E7FB85
:101A000024C1E92F4AD180F3BA176207730784070C
:101A1000950718F071F49EF562C10EF4E0950B2E57
:101A2000BA2FA02D0B01B90190010C01CA01A00130
:101A30001124FF27591B99F0593F50F4503E68F18B
:101A40001A16F040A22F232F342F4427585FF3CFCC
:101A5000469537952795A795F0405395C9F77EF49D
:101A60001F16BA0B620B730B840BBAF09150A1F0E6
:101A7000FF0FBB1F661F771F881FC2F70EC0BA0F6C
:101A8000621F731F841F48F4879577956795B795F4
:101A9000F7959E3F08F0B3CF9395880F08F09927EC
:101AA000EE0F9795879508950CD0E6C0DED040F0F4
:101AB000D5D030F021F45F3F19F0C7C0511110C1EB
:101AC000CAC0EBD098F39923C9F35523B1F3951B02
:101AD000550BBB27AA2762177307840738F09F5F4F
:101AE0005F4F220F331F441FAA1FA9F333D00E2EBE
:101AF0003AF0E0E830D091505040E695001CCAF72B
:101B000029D0FE2F27D0660F771F881FBB1F2617EF
:101B100037074807AB07B0E809F0BB0B802DBF01C2
:101B2000FF2793585F4F2AF09E3F510568F08DC004
:101B3000D7C05F3FECF3983EDCF3869577956795C9
:101B4000B795F7959F5FC9F7880F911D9695879573
:101B500097F90895E1E0660F771F881FBB1F621792
:101B600073078407BA0720F0621B730B840BBA0B50
:101B7000EE1F88F7E095089598D088F09F5790F071
:101B8000B92F9927B751A0F0D1F0660F771F881FA2
:101B9000991F1AF0BA95C9F712C0B13081F09FD0E1
:101BA000B1E008959CC0672F782F8827B85F39F07F
:101BB000B93FCCF3869577956795B395D9F73EF401
:101BC00090958095709561957F4F8F4F9F4F0895A9
:101BD000E89409C097FB3EF49095809570956195C7
:101BE0007F4F8F4F9F4F9923A9F0F92F96E9BB277D
:101BF0009395F695879577956795B795F111F8CFF9
:101C0000FAF4BB0F11F460FF1BC06F5F7F4F8F4F63
:101C10009F4F16C0882311F096E911C0772321F059
:101C20009EE8872F762F05C0662371F096E8862FF1
:101C300070E060E02AF09A95660F771F881FDAF748
:101C4000880F9695879597F9089597F99F6780E88B
:101C500070E060E008959FEF80EC089500240A94FE
:101C60001616170618060906089500240A94121677
:101C70001306140605060895092E0394000C11F4AA
:101C8000882352F0BB0F40F4BF2B11F460FF04C057
:101C90006F5F7F4F8F4F9F4F089557FD9058440FB0
:101CA000551F59F05F3F71F04795880F97FB991FBB
:101CB00061F09F3F79F08795089512161306140678
:101CC000551FF2CF4695F1DF08C016161706180605
:101CD000991FF1CF86957105610508940895E894E0
:101CE000BB2766277727CB0197F9089597FB092E25
:101CF00007260AD077FD04D00CD006D000201AF4B5
:101D0000709561957F4F0895F6F7909581959F4F57
:101D10000895AA1BBB1B51E107C0AA1FBB1FA61732
:101D2000B70710F0A61BB70B881F991F5A95A9F784
:0E1D300080959095BC01CD010895F894FFCFE9
:0A1D3E00020101010101032E06005D
:04000005008000680F
:00000001FF
