:100000000C942A000C9447000C9447000C94470071
:100010000C9447000C9447000C9447000C94470044
:100020000C9447000C9447000C9447000C94470034
:100030000C9447000C9447000C9447000C94470024
:100040000C9447000C9447000C9447000C94470014
:100050000C94470011241FBECFE5D4E0DEBFCDBF16
:1000600010E0A0E6B0E0EEE8F6E002C005900D92E8
:10007000A036B107D9F710E0A0E6B0E001C01D92AC
:10008000A237B107E1F70E941F020C9445030C94BC
:10009000000089EF90E00197F1F700C00000A898F8
:1000A000A99880E385BBAA9AE1EEF4E03197F1F7D5
:1000B00000C00000AA98E9EFF0E03197F1F700C026
:1000C0000000A898A99885BBAA9AE1EEF4E03197C0
:1000D000F1F700C00000AA98E9EFF0E03197F1F7DE
:1000E00000C00000A898A99885BBAA9A81EE94E068
:1000F0000197F1F700C00000AA98E9EFF0E031970E
:10010000F1F700C00000A898A99880E285BBAA9AE0
:1001100081EE94E00197F1F700C00000AA980895DD
:1001200095B39F7095BB95B3282F207F922B95BBDD
:10013000A898A998AA9AE1EEF4E03197F1F700C0E7
:100140000000AA9895B39F7095BB95B38295807F68
:10015000892B85BBA898A998AA9A81EE94E001976B
:10016000F1F700C00000AA98089589EF90E0019788
:10017000F1F700C0000088E20E94900081E00E9438
:10018000900086E00E9490008EE00E94900080E83F
:100190000E949000089595B39F7095BB95B3282F4A
:1001A000207F922B95BBA89AA998AA9AE1EEF4E039
:1001B0003197F1F700C00000AA9895B39F7095BBE6
:1001C00095B38295807F892B85BBA89AA998AA9A16
:1001D00081EE94E00197F1F700C00000AA9808951D
:1001E00080E80E9490000895CF93DF93EC0188810E
:1001F000882331F021960E94CB0089918823D9F77A
:10020000DF91CF910895823079F0833018F48130F6
:10021000C9F405C0833069F08430A1F40FC0862F83
:1002200081580E9490000895862F81540E9490006A
:100230000895862F8D560E9490000895862F8D5226
:100240000E94900008950F931F93CF93DF938A012C
:10025000E901882311F0662319F40E94F00002C01E
:100260000E940301C530D10571F4C80160E177E255
:100270000E943103CB01C096909364008093630089
:100280000E94CB0003C0C430D105B9F4C80168EEA8
:1002900073E00E943103CB017093660060936500A8
:1002A0006AE070E00E943103C096909371008093E1
:1002B00070000E94CB0081E001C080E0C330D10516
:1002C00011F08130B1F4C80164E670E00E9431039E
:1002D000CB0170936600609365006AE070E00E9455
:1002E0003103C09690936D0080936C000E94CB0008
:1002F00081E0C230D10511F08130B1F42AE030E064
:10030000C801B9010E943103CB017093660060936C
:100310006500B9010E943103C09690936B008093F1
:100320006A000E94CB0081E0C130D10511F081301C
:1003300061F4C8016AE070E00E943103C0969093B6
:100340006F0080936E000E94CB00C630D1051CF078
:1003500085E40E94CB00DF91CF911F910F9108950A
:1003600084B3876F84BB85B3807885BB08951ABA40
:100370001BBA089587B38F6087BB88B3807F88BB23
:1003800081B3806381BB82B3806382BB08950E9486
:10039000B0010E94B7010E94BA0108951EBC8FEF00
:1003A0008DBD91E09CBD1BBC8ABD19BC88BD17BC2E
:1003B00086BD81EA8FBD8DE08EBD089516B880E2BE
:1003C00087B980E888B986E886B908958770806221
:1003D00087B9369A349BFECF85B1349A0895CF936E
:1003E000DF93D82FC62F842F0E94E601482F8093D9
:1003F00067008D2F6C2F50E023E030E00E94230136
:10040000DF91CF91089598B3907F8F70982B98BB10
:10041000089586E00E940302089580E00E9403028E
:1004200008951BBC8ABD19BC68BD0895F8940E944C
:10043000C7010E94CE010E94DE01789408950E94B7
:1004400016020E9449000E94B5008CE36CE30E94F2
:10045000110282E061E04CE350E023E030E00E94D2
:10046000230182E065E04CE350E023E030E00E94AD
:1004700023010E94090283E00E94E601809362004A
:1004800084E00E94E6018093610085E00E94E6011D
:100490008093600081E061E043E00E94EF0181E031
:1004A00065E044E00E94EF0181E069E045E00E94E0
:1004B000EF01809161008C33E8F4909162009C33ED
:1004C000C8F4909160009C33A8F48CE36CE30E9424
:1004D000110282E061E04CE350E023E030E00E9452
:1004E000230182E065E04CE350E023E030E00E942D
:1004F0002301C1CF8D33E8F0909162009C33C8F4A2
:10050000909160009C33A8F48CE36CE30E9411028C
:1005100082E061E04CE350E023E030E00E94230100
:1005200082E065E04CE350E023E030E00E942301EC
:10053000A2CF8C33E8F4909162009C33C8F4909180
:1005400060009D33A8F08CE363E20E94110282E018
:1005500061E04CE350E023E030E00E94230182E0C0
:1005600065E043E250E023E030E00E94230183CFC6
:100570008D33E8F0909162009C33C8F49091600054
:100580009D33A8F08CE363E20E94110282E061E0F7
:100590004CE350E023E030E00E94230182E065E07C
:1005A00043E250E023E030E00E94230164CF8C332B
:1005B000E8F4909162009D33C8F0909160009C3304
:1005C000A8F483E26CE30E94110282E061E043E25E
:1005D00050E023E030E00E94230182E065E04CE33C
:1005E00050E023E030E00E94230145CF8D3308F432
:1005F00042CF809162008D3308F43DCF809160003E
:100600008C3350F583E26CE30E94110282E061E0DA
:1006100043E250E023E030E00E94230182E065E005
:100620004CE350E023E030E00E94230124CF80E03F
:1006300060E00E94110282E061E040E050E023E0CF
:1006400030E00E94230182E065E040E050E023E0DA
:1006500030E00E9423010FCF809160008D3338F786
:100660000ACFAA1BBB1B51E107C0AA1FBB1FA617BD
:10067000B70710F0A61BB70B881F991F5A95A9F74B
:0E06800080959095BC01CD010895F894FFCFB0
:00000001FF
